{
  "_format": "hh-sol-artifact-1",
  "contractName": "CreatorNFT",
  "sourceName": "contracts/CreatorNFT.sol",
  "abi": [
    {
      "inputs": [],
      "stateMutability": "nonpayable",
      "type": "constructor"
    },
    {
      "anonymous": false,
      "inputs": [
        {
          "indexed": true,
          "internalType": "address",
          "name": "owner",
          "type": "address"
        },
        {
          "indexed": true,
          "internalType": "address",
          "name": "approved",
          "type": "address"
        },
        {
          "indexed": true,
          "internalType": "uint256",
          "name": "tokenId",
          "type": "uint256"
        }
      ],
      "name": "Approval",
      "type": "event"
    },
    {
      "anonymous": false,
      "inputs": [
        {
          "indexed": true,
          "internalType": "address",
          "name": "owner",
          "type": "address"
        },
        {
          "indexed": true,
          "internalType": "address",
          "name": "operator",
          "type": "address"
        },
        {
          "indexed": false,
          "internalType": "bool",
          "name": "approved",
          "type": "bool"
        }
      ],
      "name": "ApprovalForAll",
      "type": "event"
    },
    {
      "anonymous": false,
      "inputs": [
        {
          "indexed": true,
          "internalType": "address",
          "name": "previousOwner",
          "type": "address"
        },
        {
          "indexed": true,
          "internalType": "address",
          "name": "newOwner",
          "type": "address"
        }
      ],
      "name": "OwnershipTransferred",
      "type": "event"
    },
    {
      "anonymous": false,
      "inputs": [
        {
          "indexed": true,
          "internalType": "address",
          "name": "from",
          "type": "address"
        },
        {
          "indexed": true,
          "internalType": "address",
          "name": "to",
          "type": "address"
        },
        {
          "indexed": true,
          "internalType": "uint256",
          "name": "tokenId",
          "type": "uint256"
        }
      ],
      "name": "Transfer",
      "type": "event"
    },
    {
      "inputs": [
        {
          "internalType": "address",
          "name": "to",
          "type": "address"
        },
        {
          "internalType": "uint256",
          "name": "tokenId",
          "type": "uint256"
        }
      ],
      "name": "approve",
      "outputs": [],
      "stateMutability": "nonpayable",
      "type": "function"
    },
    {
      "inputs": [
        {
          "internalType": "address",
          "name": "owner",
          "type": "address"
        }
      ],
      "name": "balanceOf",
      "outputs": [
        {
          "internalType": "uint256",
          "name": "",
          "type": "uint256"
        }
      ],
      "stateMutability": "view",
      "type": "function"
    },
    {
      "inputs": [
        {
          "internalType": "uint256",
          "name": "tokenId",
          "type": "uint256"
        }
      ],
      "name": "getApproved",
      "outputs": [
        {
          "internalType": "address",
          "name": "",
          "type": "address"
        }
      ],
      "stateMutability": "view",
      "type": "function"
    },
    {
      "inputs": [
        {
          "internalType": "address",
          "name": "_user",
          "type": "address"
        }
      ],
      "name": "getTokenURI",
      "outputs": [
        {
          "internalType": "string",
          "name": "",
          "type": "string"
        }
      ],
      "stateMutability": "view",
      "type": "function"
    },
    {
      "inputs": [
        {
          "internalType": "address",
          "name": "owner",
          "type": "address"
        },
        {
          "internalType": "address",
          "name": "operator",
          "type": "address"
        }
      ],
      "name": "isApprovedForAll",
      "outputs": [
        {
          "internalType": "bool",
          "name": "",
          "type": "bool"
        }
      ],
      "stateMutability": "view",
      "type": "function"
    },
    {
      "inputs": [
        {
          "internalType": "string",
          "name": "_tokenURI",
          "type": "string"
        }
      ],
      "name": "mintToken",
      "outputs": [
        {
          "internalType": "uint256",
          "name": "",
          "type": "uint256"
        }
      ],
      "stateMutability": "nonpayable",
      "type": "function"
    },
    {
      "inputs": [],
      "name": "name",
      "outputs": [
        {
          "internalType": "string",
          "name": "",
          "type": "string"
        }
      ],
      "stateMutability": "view",
      "type": "function"
    },
    {
      "inputs": [],
      "name": "owner",
      "outputs": [
        {
          "internalType": "address",
          "name": "",
          "type": "address"
        }
      ],
      "stateMutability": "view",
      "type": "function"
    },
    {
      "inputs": [
        {
          "internalType": "uint256",
          "name": "tokenId",
          "type": "uint256"
        }
      ],
      "name": "ownerOf",
      "outputs": [
        {
          "internalType": "address",
          "name": "",
          "type": "address"
        }
      ],
      "stateMutability": "view",
      "type": "function"
    },
    {
      "inputs": [],
      "name": "renounceOwnership",
      "outputs": [],
      "stateMutability": "nonpayable",
      "type": "function"
    },
    {
      "inputs": [
        {
          "internalType": "address",
          "name": "from",
          "type": "address"
        },
        {
          "internalType": "address",
          "name": "to",
          "type": "address"
        },
        {
          "internalType": "uint256",
          "name": "tokenId",
          "type": "uint256"
        }
      ],
      "name": "safeTransferFrom",
      "outputs": [],
      "stateMutability": "nonpayable",
      "type": "function"
    },
    {
      "inputs": [
        {
          "internalType": "address",
          "name": "from",
          "type": "address"
        },
        {
          "internalType": "address",
          "name": "to",
          "type": "address"
        },
        {
          "internalType": "uint256",
          "name": "tokenId",
          "type": "uint256"
        },
        {
          "internalType": "bytes",
          "name": "_data",
          "type": "bytes"
        }
      ],
      "name": "safeTransferFrom",
      "outputs": [],
      "stateMutability": "nonpayable",
      "type": "function"
    },
    {
      "inputs": [
        {
          "internalType": "address",
          "name": "operator",
          "type": "address"
        },
        {
          "internalType": "bool",
          "name": "approved",
          "type": "bool"
        }
      ],
      "name": "setApprovalForAll",
      "outputs": [],
      "stateMutability": "nonpayable",
      "type": "function"
    },
    {
      "inputs": [
        {
          "internalType": "bytes4",
          "name": "interfaceId",
          "type": "bytes4"
        }
      ],
      "name": "supportsInterface",
      "outputs": [
        {
          "internalType": "bool",
          "name": "",
          "type": "bool"
        }
      ],
      "stateMutability": "view",
      "type": "function"
    },
    {
      "inputs": [],
      "name": "symbol",
      "outputs": [
        {
          "internalType": "string",
          "name": "",
          "type": "string"
        }
      ],
      "stateMutability": "view",
      "type": "function"
    },
    {
      "inputs": [],
      "name": "tokenName",
      "outputs": [
        {
          "internalType": "string",
          "name": "",
          "type": "string"
        }
      ],
      "stateMutability": "view",
      "type": "function"
    },
    {
      "inputs": [],
      "name": "tokenSymbol",
      "outputs": [
        {
          "internalType": "string",
          "name": "",
          "type": "string"
        }
      ],
      "stateMutability": "view",
      "type": "function"
    },
    {
      "inputs": [
        {
          "internalType": "uint256",
          "name": "tokenId",
          "type": "uint256"
        }
      ],
      "name": "tokenURI",
      "outputs": [
        {
          "internalType": "string",
          "name": "",
          "type": "string"
        }
      ],
      "stateMutability": "view",
      "type": "function"
    },
    {
      "inputs": [
        {
          "internalType": "address",
          "name": "to",
          "type": "address"
        },
        {
          "internalType": "uint256",
          "name": "_tokenId",
          "type": "uint256"
        }
      ],
      "name": "transfer",
      "outputs": [],
      "stateMutability": "nonpayable",
      "type": "function"
    },
    {
      "inputs": [
        {
          "internalType": "address",
          "name": "from",
          "type": "address"
        },
        {
          "internalType": "address",
          "name": "to",
          "type": "address"
        },
        {
          "internalType": "uint256",
          "name": "tokenId",
          "type": "uint256"
        }
      ],
      "name": "transferFrom",
      "outputs": [],
      "stateMutability": "nonpayable",
      "type": "function"
    },
    {
      "inputs": [
        {
          "internalType": "address",
          "name": "newOwner",
          "type": "address"
        }
      ],
      "name": "transferOwnership",
      "outputs": [],
      "stateMutability": "nonpayable",
      "type": "function"
    }
  ],
  "bytecode": "0x60806040523480156200001157600080fd5b506040518060400160405280600c81526020017f43726561746f72546f6b656e00000000000000000000000000000000000000008152506040518060400160405280600281526020017f43540000000000000000000000000000000000000000000000000000000000008152506200009e62000092620000d860201b60201c565b620000e060201b60201c565b8160019080519060200190620000b6929190620001a4565b508060029080519060200190620000cf929190620001a4565b505050620002b9565b600033905090565b60008060009054906101000a900473ffffffffffffffffffffffffffffffffffffffff169050816000806101000a81548173ffffffffffffffffffffffffffffffffffffffff021916908373ffffffffffffffffffffffffffffffffffffffff1602179055508173ffffffffffffffffffffffffffffffffffffffff168173ffffffffffffffffffffffffffffffffffffffff167f8be0079c531659141344cd1fd0a4f28419497f9722a3daafe3b4186f6b6457e060405160405180910390a35050565b828054620001b29062000254565b90600052602060002090601f016020900481019282620001d6576000855562000222565b82601f10620001f157805160ff191683800117855562000222565b8280016001018555821562000222579182015b828111156200022157825182559160200191906001019062000204565b5b50905062000231919062000235565b5090565b5b808211156200025057600081600090555060010162000236565b5090565b600060028204905060018216806200026d57607f821691505b602082108114156200028457620002836200028a565b5b50919050565b7f4e487b7100000000000000000000000000000000000000000000000000000000600052602260045260246000fd5b61334d80620002c96000396000f3fe608060405234801561001057600080fd5b50600436106101375760003560e01c806370a08231116100b8578063a22cb4651161007c578063a22cb46514610350578063a9059cbb1461036c578063b88d4fde14610388578063c87b56dd146103a4578063e985e9c5146103d4578063f2fde38b1461040457610137565b806370a08231146102bc578063715018a6146102ec5780637b61c320146102f65780638da5cb5b1461031457806395d89b411461033257610137565b806333eba49a116100ff57806333eba49a146101f257806342842e0e1461022257806361c028e71461023e5780636352211e1461026e5780636c02a9311461029e57610137565b806301ffc9a71461013c57806306fdde031461016c578063081812fc1461018a578063095ea7b3146101ba57806323b872dd146101d6575b600080fd5b61015660048036038101906101519190612353565b610420565b6040516101639190612bfe565b60405180910390f35b610174610502565b6040516101819190612c19565b60405180910390f35b6101a4600480360381019061019f91906123e6565b610594565b6040516101b19190612b97565b60405180910390f35b6101d460048036038101906101cf9190612317565b610619565b005b6101f060048036038101906101eb9190612211565b610731565b005b61020c600480360381019061020791906123a5565b610791565b6040516102199190612ee2565b60405180910390f35b61023c60048036038101906102379190612211565b6108a3565b005b610258600480360381019061025391906121ac565b6108c3565b6040516102659190612c19565b60405180910390f35b610288600480360381019061028391906123e6565b610994565b6040516102959190612b97565b60405180910390f35b6102a6610a46565b6040516102b39190612c19565b60405180910390f35b6102d660048036038101906102d191906121ac565b610a7f565b6040516102e39190612ee2565b60405180910390f35b6102f4610b37565b005b6102fe610bbf565b60405161030b9190612c19565b60405180910390f35b61031c610bf8565b6040516103299190612b97565b60405180910390f35b61033a610c21565b6040516103479190612c19565b60405180910390f35b61036a600480360381019061036591906122db565b610cb3565b005b61038660048036038101906103819190612317565b610cc9565b005b6103a2600480360381019061039d9190612260565b610cd8565b005b6103be60048036038101906103b991906123e6565b610d3a565b6040516103cb9190612c19565b60405180910390f35b6103ee60048036038101906103e991906121d5565b610e8c565b6040516103fb9190612bfe565b60405180910390f35b61041e600480360381019061041991906121ac565b610f20565b005b60007f80ac58cd000000000000000000000000000000000000000000000000000000007bffffffffffffffffffffffffffffffffffffffffffffffffffffffff1916827bffffffffffffffffffffffffffffffffffffffffffffffffffffffff191614806104eb57507f5b5e139f000000000000000000000000000000000000000000000000000000007bffffffffffffffffffffffffffffffffffffffffffffffffffffffff1916827bffffffffffffffffffffffffffffffffffffffffffffffffffffffff1916145b806104fb57506104fa82611018565b5b9050919050565b60606001805461051190613142565b80601f016020809104026020016040519081016040528092919081815260200182805461053d90613142565b801561058a5780601f1061055f5761010080835404028352916020019161058a565b820191906000526020600020905b81548152906001019060200180831161056d57829003601f168201915b5050505050905090565b600061059f82611082565b6105de576040517f08c379a00000000000000000000000000000000000000000000000000000000081526004016105d590612e22565b60405180910390fd5b6005600083815260200190815260200160002060009054906101000a900473ffffffffffffffffffffffffffffffffffffffff169050919050565b600061062482610994565b90508073ffffffffffffffffffffffffffffffffffffffff168373ffffffffffffffffffffffffffffffffffffffff161415610695576040517f08c379a000000000000000000000000000000000000000000000000000000000815260040161068c90612ea2565b60405180910390fd5b8073ffffffffffffffffffffffffffffffffffffffff166106b46110ee565b73ffffffffffffffffffffffffffffffffffffffff1614806106e357506106e2816106dd6110ee565b610e8c565b5b610722576040517f08c379a000000000000000000000000000000000000000000000000000000000815260040161071990612d62565b60405180910390fd5b61072c83836110f6565b505050565b61074261073c6110ee565b826111af565b610781576040517f08c379a000000000000000000000000000000000000000000000000000000000815260040161077890612ec2565b60405180910390fd5b61078c83838361128d565b505050565b600061079d60086114e9565b6107dc6040518060400160405280600a81526020017f546f6b656e205552492000000000000000000000000000000000000000000000815250836114ff565b6108246040518060400160405280600981526020017f546f6b656e20494420000000000000000000000000000000000000000000000081525061081f600861159b565b6115a9565b6000610830600861159b565b905061083c3382611645565b6108468184611663565b82600a60003373ffffffffffffffffffffffffffffffffffffffff1673ffffffffffffffffffffffffffffffffffffffff1681526020019081526020016000209080519060200190610899929190611fd0565b5080915050919050565b6108be83838360405180602001604052806000815250610cd8565b505050565b6060600a60008373ffffffffffffffffffffffffffffffffffffffff1673ffffffffffffffffffffffffffffffffffffffff168152602001908152602001600020805461090f90613142565b80601f016020809104026020016040519081016040528092919081815260200182805461093b90613142565b80156109885780601f1061095d57610100808354040283529160200191610988565b820191906000526020600020905b81548152906001019060200180831161096b57829003601f168201915b50505050509050919050565b6000806003600084815260200190815260200160002060009054906101000a900473ffffffffffffffffffffffffffffffffffffffff169050600073ffffffffffffffffffffffffffffffffffffffff168173ffffffffffffffffffffffffffffffffffffffff161415610a3d576040517f08c379a0000000000000000000000000000000000000000000000000000000008152600401610a3490612da2565b60405180910390fd5b80915050919050565b6040518060400160405280600c81526020017f43726561746f72546f6b656e000000000000000000000000000000000000000081525081565b60008073ffffffffffffffffffffffffffffffffffffffff168273ffffffffffffffffffffffffffffffffffffffff161415610af0576040517f08c379a0000000000000000000000000000000000000000000000000000000008152600401610ae790612d82565b60405180910390fd5b600460008373ffffffffffffffffffffffffffffffffffffffff1673ffffffffffffffffffffffffffffffffffffffff168152602001908152602001600020549050919050565b610b3f6110ee565b73ffffffffffffffffffffffffffffffffffffffff16610b5d610bf8565b73ffffffffffffffffffffffffffffffffffffffff1614610bb3576040517f08c379a0000000000000000000000000000000000000000000000000000000008152600401610baa90612e42565b60405180910390fd5b610bbd60006116d7565b565b6040518060400160405280600281526020017f435400000000000000000000000000000000000000000000000000000000000081525081565b60008060009054906101000a900473ffffffffffffffffffffffffffffffffffffffff16905090565b606060028054610c3090613142565b80601f0160208091040260200160405190810160405280929190818152602001828054610c5c90613142565b8015610ca95780601f10610c7e57610100808354040283529160200191610ca9565b820191906000526020600020905b815481529060010190602001808311610c8c57829003601f168201915b5050505050905090565b610cc5610cbe6110ee565b838361179b565b5050565b610cd4338383610731565b5050565b610ce9610ce36110ee565b836111af565b610d28576040517f08c379a0000000000000000000000000000000000000000000000000000000008152600401610d1f90612ec2565b60405180910390fd5b610d3484848484611908565b50505050565b6060610d4582611082565b610d84576040517f08c379a0000000000000000000000000000000000000000000000000000000008152600401610d7b90612e02565b60405180910390fd5b6000600760008481526020019081526020016000208054610da490613142565b80601f0160208091040260200160405190810160405280929190818152602001828054610dd090613142565b8015610e1d5780601f10610df257610100808354040283529160200191610e1d565b820191906000526020600020905b815481529060010190602001808311610e0057829003601f168201915b505050505090506000610e2e611964565b9050600081511415610e44578192505050610e87565b600082511115610e79578082604051602001610e61929190612b73565b60405160208183030381529060405292505050610e87565b610e828461197b565b925050505b919050565b6000600660008473ffffffffffffffffffffffffffffffffffffffff1673ffffffffffffffffffffffffffffffffffffffff16815260200190815260200160002060008373ffffffffffffffffffffffffffffffffffffffff1673ffffffffffffffffffffffffffffffffffffffff16815260200190815260200160002060009054906101000a900460ff16905092915050565b610f286110ee565b73ffffffffffffffffffffffffffffffffffffffff16610f46610bf8565b73ffffffffffffffffffffffffffffffffffffffff1614610f9c576040517f08c379a0000000000000000000000000000000000000000000000000000000008152600401610f9390612e42565b60405180910390fd5b600073ffffffffffffffffffffffffffffffffffffffff168173ffffffffffffffffffffffffffffffffffffffff16141561100c576040517f08c379a000000000000000000000000000000000000000000000000000000000815260040161100390612cc2565b60405180910390fd5b611015816116d7565b50565b60007f01ffc9a7000000000000000000000000000000000000000000000000000000007bffffffffffffffffffffffffffffffffffffffffffffffffffffffff1916827bffffffffffffffffffffffffffffffffffffffffffffffffffffffff1916149050919050565b60008073ffffffffffffffffffffffffffffffffffffffff166003600084815260200190815260200160002060009054906101000a900473ffffffffffffffffffffffffffffffffffffffff1673ffffffffffffffffffffffffffffffffffffffff1614159050919050565b600033905090565b816005600083815260200190815260200160002060006101000a81548173ffffffffffffffffffffffffffffffffffffffff021916908373ffffffffffffffffffffffffffffffffffffffff160217905550808273ffffffffffffffffffffffffffffffffffffffff1661116983610994565b73ffffffffffffffffffffffffffffffffffffffff167f8c5be1e5ebec7d5bd14f71427d1e84f3dd0314c0f7b2291e5b200ac8c7c3b92560405160405180910390a45050565b60006111ba82611082565b6111f9576040517f08c379a00000000000000000000000000000000000000000000000000000000081526004016111f090612d42565b60405180910390fd5b600061120483610994565b90508073ffffffffffffffffffffffffffffffffffffffff168473ffffffffffffffffffffffffffffffffffffffff16148061127357508373ffffffffffffffffffffffffffffffffffffffff1661125b84610594565b73ffffffffffffffffffffffffffffffffffffffff16145b8061128457506112838185610e8c565b5b91505092915050565b8273ffffffffffffffffffffffffffffffffffffffff166112ad82610994565b73ffffffffffffffffffffffffffffffffffffffff1614611303576040517f08c379a00000000000000000000000000000000000000000000000000000000081526004016112fa90612e62565b60405180910390fd5b600073ffffffffffffffffffffffffffffffffffffffff168273ffffffffffffffffffffffffffffffffffffffff161415611373576040517f08c379a000000000000000000000000000000000000000000000000000000000815260040161136a90612d02565b60405180910390fd5b61137e838383611a22565b6113896000826110f6565b6001600460008573ffffffffffffffffffffffffffffffffffffffff1673ffffffffffffffffffffffffffffffffffffffff16815260200190815260200160002060008282546113d99190613058565b925050819055506001600460008473ffffffffffffffffffffffffffffffffffffffff1673ffffffffffffffffffffffffffffffffffffffff16815260200190815260200160002060008282546114309190612fd1565b92505081905550816003600083815260200190815260200160002060006101000a81548173ffffffffffffffffffffffffffffffffffffffff021916908373ffffffffffffffffffffffffffffffffffffffff160217905550808273ffffffffffffffffffffffffffffffffffffffff168473ffffffffffffffffffffffffffffffffffffffff167fddf252ad1be2c89b69c2b068fc378daa952ba7f163c4a11628f55a4df523b3ef60405160405180910390a4505050565b6001816000016000828254019250508190555050565b6115978282604051602401611515929190612c3b565b6040516020818303038152906040527f4b5c4277000000000000000000000000000000000000000000000000000000007bffffffffffffffffffffffffffffffffffffffffffffffffffffffff19166020820180517bffffffffffffffffffffffffffffffffffffffffffffffffffffffff8381831617835250505050611a27565b5050565b600081600001549050919050565b61164182826040516024016115bf929190612c72565b6040516020818303038152906040527f9710a9d0000000000000000000000000000000000000000000000000000000007bffffffffffffffffffffffffffffffffffffffffffffffffffffffff19166020820180517bffffffffffffffffffffffffffffffffffffffffffffffffffffffff8381831617835250505050611a27565b5050565b61165f828260405180602001604052806000815250611a50565b5050565b61166c82611082565b6116ab576040517f08c379a00000000000000000000000000000000000000000000000000000000081526004016116a290612dc2565b60405180910390fd5b806007600084815260200190815260200160002090805190602001906116d2929190611fd0565b505050565b60008060009054906101000a900473ffffffffffffffffffffffffffffffffffffffff169050816000806101000a81548173ffffffffffffffffffffffffffffffffffffffff021916908373ffffffffffffffffffffffffffffffffffffffff1602179055508173ffffffffffffffffffffffffffffffffffffffff168173ffffffffffffffffffffffffffffffffffffffff167f8be0079c531659141344cd1fd0a4f28419497f9722a3daafe3b4186f6b6457e060405160405180910390a35050565b8173ffffffffffffffffffffffffffffffffffffffff168373ffffffffffffffffffffffffffffffffffffffff16141561180a576040517f08c379a000000000000000000000000000000000000000000000000000000000815260040161180190612d22565b60405180910390fd5b80600660008573ffffffffffffffffffffffffffffffffffffffff1673ffffffffffffffffffffffffffffffffffffffff16815260200190815260200160002060008473ffffffffffffffffffffffffffffffffffffffff1673ffffffffffffffffffffffffffffffffffffffff16815260200190815260200160002060006101000a81548160ff0219169083151502179055508173ffffffffffffffffffffffffffffffffffffffff168373ffffffffffffffffffffffffffffffffffffffff167f17307eab39ab6107e8899845ad3d59bd9653f200f220920489ca2b5937696c31836040516118fb9190612bfe565b60405180910390a3505050565b61191384848461128d565b61191f84848484611aab565b61195e576040517f08c379a000000000000000000000000000000000000000000000000000000000815260040161195590612ca2565b60405180910390fd5b50505050565b606060405180602001604052806000815250905090565b606061198682611082565b6119c5576040517f08c379a00000000000000000000000000000000000000000000000000000000081526004016119bc90612e82565b60405180910390fd5b60006119cf611964565b905060008151116119ef5760405180602001604052806000815250611a1a565b806119f984611c42565b604051602001611a0a929190612b73565b6040516020818303038152906040525b915050919050565b505050565b60008151905060006a636f6e736f6c652e6c6f679050602083016000808483855afa5050505050565b611a5a8383611def565b611a676000848484611aab565b611aa6576040517f08c379a0000000000000000000000000000000000000000000000000000000008152600401611a9d90612ca2565b60405180910390fd5b505050565b6000611acc8473ffffffffffffffffffffffffffffffffffffffff16611fbd565b15611c35578373ffffffffffffffffffffffffffffffffffffffff1663150b7a02611af56110ee565b8786866040518563ffffffff1660e01b8152600401611b179493929190612bb2565b602060405180830381600087803b158015611b3157600080fd5b505af1925050508015611b6257506040513d601f19601f82011682018060405250810190611b5f919061237c565b60015b611be5573d8060008114611b92576040519150601f19603f3d011682016040523d82523d6000602084013e611b97565b606091505b50600081511415611bdd576040517f08c379a0000000000000000000000000000000000000000000000000000000008152600401611bd490612ca2565b60405180910390fd5b805181602001fd5b63150b7a0260e01b7bffffffffffffffffffffffffffffffffffffffffffffffffffffffff1916817bffffffffffffffffffffffffffffffffffffffffffffffffffffffff191614915050611c3a565b600190505b949350505050565b60606000821415611c8a576040518060400160405280600181526020017f30000000000000000000000000000000000000000000000000000000000000008152509050611dea565b600082905060005b60008214611cbc578080611ca590613174565b915050600a82611cb59190613027565b9150611c92565b60008167ffffffffffffffff811115611cfe577f4e487b7100000000000000000000000000000000000000000000000000000000600052604160045260246000fd5b6040519080825280601f01601f191660200182016040528015611d305781602001600182028036833780820191505090505b5090505b60008514611de357600182611d499190613058565b9150600a85611d5891906131bd565b6030611d649190612fd1565b60f81b818381518110611da0577f4e487b7100000000000000000000000000000000000000000000000000000000600052603260045260246000fd5b60200101907effffffffffffffffffffffffffffffffffffffffffffffffffffffffffffff1916908160001a905350600a85611ddc9190613027565b9450611d34565b8093505050505b919050565b600073ffffffffffffffffffffffffffffffffffffffff168273ffffffffffffffffffffffffffffffffffffffff161415611e5f576040517f08c379a0000000000000000000000000000000000000000000000000000000008152600401611e5690612de2565b60405180910390fd5b611e6881611082565b15611ea8576040517f08c379a0000000000000000000000000000000000000000000000000000000008152600401611e9f90612ce2565b60405180910390fd5b611eb460008383611a22565b6001600460008473ffffffffffffffffffffffffffffffffffffffff1673ffffffffffffffffffffffffffffffffffffffff1681526020019081526020016000206000828254611f049190612fd1565b92505081905550816003600083815260200190815260200160002060006101000a81548173ffffffffffffffffffffffffffffffffffffffff021916908373ffffffffffffffffffffffffffffffffffffffff160217905550808273ffffffffffffffffffffffffffffffffffffffff16600073ffffffffffffffffffffffffffffffffffffffff167fddf252ad1be2c89b69c2b068fc378daa952ba7f163c4a11628f55a4df523b3ef60405160405180910390a45050565b600080823b905060008111915050919050565b828054611fdc90613142565b90600052602060002090601f016020900481019282611ffe5760008555612045565b82601f1061201757805160ff1916838001178555612045565b82800160010185558215612045579182015b82811115612044578251825591602001919060010190612029565b5b5090506120529190612056565b5090565b5b8082111561206f576000816000905550600101612057565b5090565b600061208661208184612f2e565b612efd565b90508281526020810184848401111561209e57600080fd5b6120a9848285613100565b509392505050565b60006120c46120bf84612f5e565b612efd565b9050828152602081018484840111156120dc57600080fd5b6120e7848285613100565b509392505050565b6000813590506120fe816132bb565b92915050565b600081359050612113816132d2565b92915050565b600081359050612128816132e9565b92915050565b60008151905061213d816132e9565b92915050565b600082601f83011261215457600080fd5b8135612164848260208601612073565b91505092915050565b600082601f83011261217e57600080fd5b813561218e8482602086016120b1565b91505092915050565b6000813590506121a681613300565b92915050565b6000602082840312156121be57600080fd5b60006121cc848285016120ef565b91505092915050565b600080604083850312156121e857600080fd5b60006121f6858286016120ef565b9250506020612207858286016120ef565b9150509250929050565b60008060006060848603121561222657600080fd5b6000612234868287016120ef565b9350506020612245868287016120ef565b925050604061225686828701612197565b9150509250925092565b6000806000806080858703121561227657600080fd5b6000612284878288016120ef565b9450506020612295878288016120ef565b93505060406122a687828801612197565b925050606085013567ffffffffffffffff8111156122c357600080fd5b6122cf87828801612143565b91505092959194509250565b600080604083850312156122ee57600080fd5b60006122fc858286016120ef565b925050602061230d85828601612104565b9150509250929050565b6000806040838503121561232a57600080fd5b6000612338858286016120ef565b925050602061234985828601612197565b9150509250929050565b60006020828403121561236557600080fd5b600061237384828501612119565b91505092915050565b60006020828403121561238e57600080fd5b600061239c8482850161212e565b91505092915050565b6000602082840312156123b757600080fd5b600082013567ffffffffffffffff8111156123d157600080fd5b6123dd8482850161216d565b91505092915050565b6000602082840312156123f857600080fd5b600061240684828501612197565b91505092915050565b6124188161308c565b82525050565b6124278161309e565b82525050565b600061243882612f8e565b6124428185612fa4565b935061245281856020860161310f565b61245b816132aa565b840191505092915050565b600061247182612f99565b61247b8185612fb5565b935061248b81856020860161310f565b612494816132aa565b840191505092915050565b60006124aa82612f99565b6124b48185612fc6565b93506124c481856020860161310f565b80840191505092915050565b60006124dd603283612fb5565b91507f4552433732313a207472616e7366657220746f206e6f6e20455243373231526560008301527f63656976657220696d706c656d656e74657200000000000000000000000000006020830152604082019050919050565b6000612543602683612fb5565b91507f4f776e61626c653a206e6577206f776e657220697320746865207a65726f206160008301527f64647265737300000000000000000000000000000000000000000000000000006020830152604082019050919050565b60006125a9601c83612fb5565b91507f4552433732313a20746f6b656e20616c7265616479206d696e746564000000006000830152602082019050919050565b60006125e9602483612fb5565b91507f4552433732313a207472616e7366657220746f20746865207a65726f2061646460008301527f72657373000000000000000000000000000000000000000000000000000000006020830152604082019050919050565b600061264f601983612fb5565b91507f4552433732313a20617070726f766520746f2063616c6c6572000000000000006000830152602082019050919050565b600061268f602c83612fb5565b91507f4552433732313a206f70657261746f7220717565727920666f72206e6f6e657860008301527f697374656e7420746f6b656e00000000000000000000000000000000000000006020830152604082019050919050565b60006126f5603883612fb5565b91507f4552433732313a20617070726f76652063616c6c6572206973206e6f74206f7760008301527f6e6572206e6f7220617070726f76656420666f7220616c6c00000000000000006020830152604082019050919050565b600061275b602a83612fb5565b91507f4552433732313a2062616c616e636520717565727920666f7220746865207a6560008301527f726f2061646472657373000000000000000000000000000000000000000000006020830152604082019050919050565b60006127c1602983612fb5565b91507f4552433732313a206f776e657220717565727920666f72206e6f6e657869737460008301527f656e7420746f6b656e00000000000000000000000000000000000000000000006020830152604082019050919050565b6000612827602e83612fb5565b91507f45524337323155524953746f726167653a2055524920736574206f66206e6f6e60008301527f6578697374656e7420746f6b656e0000000000000000000000000000000000006020830152604082019050919050565b600061288d602083612fb5565b91507f4552433732313a206d696e7420746f20746865207a65726f20616464726573736000830152602082019050919050565b60006128cd603183612fb5565b91507f45524337323155524953746f726167653a2055524920717565727920666f722060008301527f6e6f6e6578697374656e7420746f6b656e0000000000000000000000000000006020830152604082019050919050565b6000612933602c83612fb5565b91507f4552433732313a20617070726f76656420717565727920666f72206e6f6e657860008301527f697374656e7420746f6b656e00000000000000000000000000000000000000006020830152604082019050919050565b6000612999602083612fb5565b91507f4f776e61626c653a2063616c6c6572206973206e6f7420746865206f776e65726000830152602082019050919050565b60006129d9602983612fb5565b91507f4552433732313a207472616e73666572206f6620746f6b656e2074686174206960008301527f73206e6f74206f776e00000000000000000000000000000000000000000000006020830152604082019050919050565b6000612a3f602f83612fb5565b91507f4552433732314d657461646174613a2055524920717565727920666f72206e6f60008301527f6e6578697374656e7420746f6b656e00000000000000000000000000000000006020830152604082019050919050565b6000612aa5602183612fb5565b91507f4552433732313a20617070726f76616c20746f2063757272656e74206f776e6560008301527f72000000000000000000000000000000000000000000000000000000000000006020830152604082019050919050565b6000612b0b603183612fb5565b91507f4552433732313a207472616e736665722063616c6c6572206973206e6f74206f60008301527f776e6572206e6f7220617070726f7665640000000000000000000000000000006020830152604082019050919050565b612b6d816130f6565b82525050565b6000612b7f828561249f565b9150612b8b828461249f565b91508190509392505050565b6000602082019050612bac600083018461240f565b92915050565b6000608082019050612bc7600083018761240f565b612bd4602083018661240f565b612be16040830185612b64565b8181036060830152612bf3818461242d565b905095945050505050565b6000602082019050612c13600083018461241e565b92915050565b60006020820190508181036000830152612c338184612466565b905092915050565b60006040820190508181036000830152612c558185612466565b90508181036020830152612c698184612466565b90509392505050565b60006040820190508181036000830152612c8c8185612466565b9050612c9b6020830184612b64565b9392505050565b60006020820190508181036000830152612cbb816124d0565b9050919050565b60006020820190508181036000830152612cdb81612536565b9050919050565b60006020820190508181036000830152612cfb8161259c565b9050919050565b60006020820190508181036000830152612d1b816125dc565b9050919050565b60006020820190508181036000830152612d3b81612642565b9050919050565b60006020820190508181036000830152612d5b81612682565b9050919050565b60006020820190508181036000830152612d7b816126e8565b9050919050565b60006020820190508181036000830152612d9b8161274e565b9050919050565b60006020820190508181036000830152612dbb816127b4565b9050919050565b60006020820190508181036000830152612ddb8161281a565b9050919050565b60006020820190508181036000830152612dfb81612880565b9050919050565b60006020820190508181036000830152612e1b816128c0565b9050919050565b60006020820190508181036000830152612e3b81612926565b9050919050565b60006020820190508181036000830152612e5b8161298c565b9050919050565b60006020820190508181036000830152612e7b816129cc565b9050919050565b60006020820190508181036000830152612e9b81612a32565b9050919050565b60006020820190508181036000830152612ebb81612a98565b9050919050565b60006020820190508181036000830152612edb81612afe565b9050919050565b6000602082019050612ef76000830184612b64565b92915050565b6000604051905081810181811067ffffffffffffffff82111715612f2457612f2361327b565b5b8060405250919050565b600067ffffffffffffffff821115612f4957612f4861327b565b5b601f19601f8301169050602081019050919050565b600067ffffffffffffffff821115612f7957612f7861327b565b5b601f19601f8301169050602081019050919050565b600081519050919050565b600081519050919050565b600082825260208201905092915050565b600082825260208201905092915050565b600081905092915050565b6000612fdc826130f6565b9150612fe7836130f6565b9250827fffffffffffffffffffffffffffffffffffffffffffffffffffffffffffffffff0382111561301c5761301b6131ee565b5b828201905092915050565b6000613032826130f6565b915061303d836130f6565b92508261304d5761304c61321d565b5b828204905092915050565b6000613063826130f6565b915061306e836130f6565b925082821015613081576130806131ee565b5b828203905092915050565b6000613097826130d6565b9050919050565b60008115159050919050565b60007fffffffff0000000000000000000000000000000000000000000000000000000082169050919050565b600073ffffffffffffffffffffffffffffffffffffffff82169050919050565b6000819050919050565b82818337600083830152505050565b60005b8381101561312d578082015181840152602081019050613112565b8381111561313c576000848401525b50505050565b6000600282049050600182168061315a57607f821691505b6020821081141561316e5761316d61324c565b5b50919050565b600061317f826130f6565b91507fffffffffffffffffffffffffffffffffffffffffffffffffffffffffffffffff8214156131b2576131b16131ee565b5b600182019050919050565b60006131c8826130f6565b91506131d3836130f6565b9250826131e3576131e261321d565b5b828206905092915050565b7f4e487b7100000000000000000000000000000000000000000000000000000000600052601160045260246000fd5b7f4e487b7100000000000000000000000000000000000000000000000000000000600052601260045260246000fd5b7f4e487b7100000000000000000000000000000000000000000000000000000000600052602260045260246000fd5b7f4e487b7100000000000000000000000000000000000000000000000000000000600052604160045260246000fd5b6000601f19601f8301169050919050565b6132c48161308c565b81146132cf57600080fd5b50565b6132db8161309e565b81146132e657600080fd5b50565b6132f2816130aa565b81146132fd57600080fd5b50565b613309816130f6565b811461331457600080fd5b5056fea2646970667358221220050f4ccbacd71397727d5375f73e3fba3972356e72cc674255642c2713ba3c0064736f6c63430008000033",
  "linkReferences": {},
  "deployedLinkReferences": {}
}