{
  "_format": "hh-sol-artifact-1",
  "contractName": "CreatorNFT",
  "sourceName": "contracts/CreatorNFT.sol",
  "abi": [
    {
      "inputs": [],
      "stateMutability": "nonpayable",
      "type": "constructor"
    },
    {
      "anonymous": false,
      "inputs": [
        {
          "indexed": true,
          "internalType": "address",
          "name": "owner",
          "type": "address"
        },
        {
          "indexed": true,
          "internalType": "address",
          "name": "approved",
          "type": "address"
        },
        {
          "indexed": true,
          "internalType": "uint256",
          "name": "tokenId",
          "type": "uint256"
        }
      ],
      "name": "Approval",
      "type": "event"
    },
    {
      "anonymous": false,
      "inputs": [
        {
          "indexed": true,
          "internalType": "address",
          "name": "owner",
          "type": "address"
        },
        {
          "indexed": true,
          "internalType": "address",
          "name": "operator",
          "type": "address"
        },
        {
          "indexed": false,
          "internalType": "bool",
          "name": "approved",
          "type": "bool"
        }
      ],
      "name": "ApprovalForAll",
      "type": "event"
    },
    {
      "anonymous": false,
      "inputs": [
        {
          "indexed": true,
          "internalType": "address",
          "name": "previousOwner",
          "type": "address"
        },
        {
          "indexed": true,
          "internalType": "address",
          "name": "newOwner",
          "type": "address"
        }
      ],
      "name": "OwnershipTransferred",
      "type": "event"
    },
    {
      "anonymous": false,
      "inputs": [
        {
          "indexed": true,
          "internalType": "address",
          "name": "from",
          "type": "address"
        },
        {
          "indexed": true,
          "internalType": "address",
          "name": "to",
          "type": "address"
        },
        {
          "indexed": true,
          "internalType": "uint256",
          "name": "tokenId",
          "type": "uint256"
        }
      ],
      "name": "Transfer",
      "type": "event"
    },
    {
      "inputs": [
        {
          "internalType": "address",
          "name": "to",
          "type": "address"
        },
        {
          "internalType": "uint256",
          "name": "tokenId",
          "type": "uint256"
        }
      ],
      "name": "approve",
      "outputs": [],
      "stateMutability": "nonpayable",
      "type": "function"
    },
    {
      "inputs": [
        {
          "internalType": "address",
          "name": "owner",
          "type": "address"
        }
      ],
      "name": "balanceOf",
      "outputs": [
        {
          "internalType": "uint256",
          "name": "",
          "type": "uint256"
        }
      ],
      "stateMutability": "view",
      "type": "function"
    },
    {
      "inputs": [
        {
          "internalType": "uint256",
          "name": "tokenId",
          "type": "uint256"
        }
      ],
      "name": "getApproved",
      "outputs": [
        {
          "internalType": "address",
          "name": "",
          "type": "address"
        }
      ],
      "stateMutability": "view",
      "type": "function"
    },
    {
      "inputs": [
        {
          "internalType": "address",
          "name": "_user",
          "type": "address"
        }
      ],
      "name": "getTokenURI",
      "outputs": [
        {
          "internalType": "string",
          "name": "",
          "type": "string"
        }
      ],
      "stateMutability": "view",
      "type": "function"
    },
    {
      "inputs": [
        {
          "internalType": "address",
          "name": "owner",
          "type": "address"
        },
        {
          "internalType": "address",
          "name": "operator",
          "type": "address"
        }
      ],
      "name": "isApprovedForAll",
      "outputs": [
        {
          "internalType": "bool",
          "name": "",
          "type": "bool"
        }
      ],
      "stateMutability": "view",
      "type": "function"
    },
    {
      "inputs": [
        {
          "internalType": "string",
          "name": "_tokenURI",
          "type": "string"
        }
      ],
      "name": "mintToken",
      "outputs": [
        {
          "internalType": "uint256",
          "name": "",
          "type": "uint256"
        }
      ],
      "stateMutability": "nonpayable",
      "type": "function"
    },
    {
      "inputs": [],
      "name": "name",
      "outputs": [
        {
          "internalType": "string",
          "name": "",
          "type": "string"
        }
      ],
      "stateMutability": "view",
      "type": "function"
    },
    {
      "inputs": [],
      "name": "owner",
      "outputs": [
        {
          "internalType": "address",
          "name": "",
          "type": "address"
        }
      ],
      "stateMutability": "view",
      "type": "function"
    },
    {
      "inputs": [
        {
          "internalType": "uint256",
          "name": "tokenId",
          "type": "uint256"
        }
      ],
      "name": "ownerOf",
      "outputs": [
        {
          "internalType": "address",
          "name": "",
          "type": "address"
        }
      ],
      "stateMutability": "view",
      "type": "function"
    },
    {
      "inputs": [],
      "name": "renounceOwnership",
      "outputs": [],
      "stateMutability": "nonpayable",
      "type": "function"
    },
    {
      "inputs": [
        {
          "internalType": "address",
          "name": "from",
          "type": "address"
        },
        {
          "internalType": "address",
          "name": "to",
          "type": "address"
        },
        {
          "internalType": "uint256",
          "name": "tokenId",
          "type": "uint256"
        }
      ],
      "name": "safeTransferFrom",
      "outputs": [],
      "stateMutability": "nonpayable",
      "type": "function"
    },
    {
      "inputs": [
        {
          "internalType": "address",
          "name": "from",
          "type": "address"
        },
        {
          "internalType": "address",
          "name": "to",
          "type": "address"
        },
        {
          "internalType": "uint256",
          "name": "tokenId",
          "type": "uint256"
        },
        {
          "internalType": "bytes",
          "name": "_data",
          "type": "bytes"
        }
      ],
      "name": "safeTransferFrom",
      "outputs": [],
      "stateMutability": "nonpayable",
      "type": "function"
    },
    {
      "inputs": [
        {
          "internalType": "address",
          "name": "operator",
          "type": "address"
        },
        {
          "internalType": "bool",
          "name": "approved",
          "type": "bool"
        }
      ],
      "name": "setApprovalForAll",
      "outputs": [],
      "stateMutability": "nonpayable",
      "type": "function"
    },
    {
      "inputs": [
        {
          "internalType": "bytes4",
          "name": "interfaceId",
          "type": "bytes4"
        }
      ],
      "name": "supportsInterface",
      "outputs": [
        {
          "internalType": "bool",
          "name": "",
          "type": "bool"
        }
      ],
      "stateMutability": "view",
      "type": "function"
    },
    {
      "inputs": [],
      "name": "symbol",
      "outputs": [
        {
          "internalType": "string",
          "name": "",
          "type": "string"
        }
      ],
      "stateMutability": "view",
      "type": "function"
    },
    {
      "inputs": [],
      "name": "tokenName",
      "outputs": [
        {
          "internalType": "string",
          "name": "",
          "type": "string"
        }
      ],
      "stateMutability": "view",
      "type": "function"
    },
    {
      "inputs": [],
      "name": "tokenSymbol",
      "outputs": [
        {
          "internalType": "string",
          "name": "",
          "type": "string"
        }
      ],
      "stateMutability": "view",
      "type": "function"
    },
    {
      "inputs": [
        {
          "internalType": "uint256",
          "name": "tokenId",
          "type": "uint256"
        }
      ],
      "name": "tokenURI",
      "outputs": [
        {
          "internalType": "string",
          "name": "",
          "type": "string"
        }
      ],
      "stateMutability": "view",
      "type": "function"
    },
    {
      "inputs": [
        {
          "internalType": "address",
          "name": "to",
          "type": "address"
        },
        {
          "internalType": "uint256",
          "name": "_tokenId",
          "type": "uint256"
        }
      ],
      "name": "transfer",
      "outputs": [],
      "stateMutability": "nonpayable",
      "type": "function"
    },
    {
      "inputs": [
        {
          "internalType": "address",
          "name": "from",
          "type": "address"
        },
        {
          "internalType": "address",
          "name": "to",
          "type": "address"
        },
        {
          "internalType": "uint256",
          "name": "tokenId",
          "type": "uint256"
        }
      ],
      "name": "transferFrom",
      "outputs": [],
      "stateMutability": "nonpayable",
      "type": "function"
    },
    {
      "inputs": [
        {
          "internalType": "address",
          "name": "newOwner",
          "type": "address"
        }
      ],
      "name": "transferOwnership",
      "outputs": [],
      "stateMutability": "nonpayable",
      "type": "function"
    },
    {
      "inputs": [
        {
          "internalType": "string",
          "name": "_newURI",
          "type": "string"
        }
      ],
      "name": "updateTokenURI",
      "outputs": [],
      "stateMutability": "nonpayable",
      "type": "function"
    }
  ],
  "bytecode": "0x60806040523480156200001157600080fd5b506040518060400160405280601481526020017f416666696e69747943726561746f72546f6b656e0000000000000000000000008152506040518060400160405280600381526020017f4143540000000000000000000000000000000000000000000000000000000000815250816000908051906020019062000096929190620001a6565b508060019080519060200190620000af929190620001a6565b505050620000d2620000c6620000d860201b60201c565b620000e060201b60201c565b620002bb565b600033905090565b6000600760009054906101000a900473ffffffffffffffffffffffffffffffffffffffff16905081600760006101000a81548173ffffffffffffffffffffffffffffffffffffffff021916908373ffffffffffffffffffffffffffffffffffffffff1602179055508173ffffffffffffffffffffffffffffffffffffffff168173ffffffffffffffffffffffffffffffffffffffff167f8be0079c531659141344cd1fd0a4f28419497f9722a3daafe3b4186f6b6457e060405160405180910390a35050565b828054620001b49062000256565b90600052602060002090601f016020900481019282620001d8576000855562000224565b82601f10620001f357805160ff191683800117855562000224565b8280016001018555821562000224579182015b828111156200022357825182559160200191906001019062000206565b5b50905062000233919062000237565b5090565b5b808211156200025257600081600090555060010162000238565b5090565b600060028204905060018216806200026f57607f821691505b602082108114156200028657620002856200028c565b5b50919050565b7f4e487b7100000000000000000000000000000000000000000000000000000000600052602260045260246000fd5b6133ce80620002cb6000396000f3fe608060405234801561001057600080fd5b50600436106101425760003560e01c8063715018a6116100b8578063a22cb4651161007c578063a22cb46514610377578063a9059cbb14610393578063b88d4fde146103af578063c87b56dd146103cb578063e985e9c5146103fb578063f2fde38b1461042b57610142565b8063715018a6146102f75780637b61c320146103015780638da5cb5b1461031f57806395d89b411461033d57806398cd61531461035b57610142565b806333eba49a1161010a57806333eba49a146101fd57806342842e0e1461022d57806361c028e7146102495780636352211e146102795780636c02a931146102a957806370a08231146102c757610142565b806301ffc9a71461014757806306fdde0314610177578063081812fc14610195578063095ea7b3146101c557806323b872dd146101e1575b600080fd5b610161600480360381019061015c91906123d4565b610447565b60405161016e9190612c7f565b60405180910390f35b61017f610529565b60405161018c9190612c9a565b60405180910390f35b6101af60048036038101906101aa9190612467565b6105bb565b6040516101bc9190612c18565b60405180910390f35b6101df60048036038101906101da9190612398565b610640565b005b6101fb60048036038101906101f69190612292565b610758565b005b61021760048036038101906102129190612426565b6107b8565b6040516102249190612f63565b60405180910390f35b61024760048036038101906102429190612292565b6108ca565b005b610263600480360381019061025e919061222d565b6108ea565b6040516102709190612c9a565b60405180910390f35b610293600480360381019061028e9190612467565b6109bb565b6040516102a09190612c18565b60405180910390f35b6102b1610a6d565b6040516102be9190612c9a565b60405180910390f35b6102e160048036038101906102dc919061222d565b610aa6565b6040516102ee9190612f63565b60405180910390f35b6102ff610b5e565b005b610309610be6565b6040516103169190612c9a565b60405180910390f35b610327610c1f565b6040516103349190612c18565b60405180910390f35b610345610c49565b6040516103529190612c9a565b60405180910390f35b61037560048036038101906103709190612426565b610cdb565b005b610391600480360381019061038c919061235c565b610d32565b005b6103ad60048036038101906103a89190612398565b610d48565b005b6103c960048036038101906103c491906122e1565b610d57565b005b6103e560048036038101906103e09190612467565b610db9565b6040516103f29190612c9a565b60405180910390f35b61041560048036038101906104109190612256565b610f0b565b6040516104229190612c7f565b60405180910390f35b6104456004803603810190610440919061222d565b610f9f565b005b60007f80ac58cd000000000000000000000000000000000000000000000000000000007bffffffffffffffffffffffffffffffffffffffffffffffffffffffff1916827bffffffffffffffffffffffffffffffffffffffffffffffffffffffff1916148061051257507f5b5e139f000000000000000000000000000000000000000000000000000000007bffffffffffffffffffffffffffffffffffffffffffffffffffffffff1916827bffffffffffffffffffffffffffffffffffffffffffffffffffffffff1916145b80610522575061052182611097565b5b9050919050565b606060008054610538906131c3565b80601f0160208091040260200160405190810160405280929190818152602001828054610564906131c3565b80156105b15780601f10610586576101008083540402835291602001916105b1565b820191906000526020600020905b81548152906001019060200180831161059457829003601f168201915b5050505050905090565b60006105c682611101565b610605576040517f08c379a00000000000000000000000000000000000000000000000000000000081526004016105fc90612ea3565b60405180910390fd5b6004600083815260200190815260200160002060009054906101000a900473ffffffffffffffffffffffffffffffffffffffff169050919050565b600061064b826109bb565b90508073ffffffffffffffffffffffffffffffffffffffff168373ffffffffffffffffffffffffffffffffffffffff1614156106bc576040517f08c379a00000000000000000000000000000000000000000000000000000000081526004016106b390612f23565b60405180910390fd5b8073ffffffffffffffffffffffffffffffffffffffff166106db61116d565b73ffffffffffffffffffffffffffffffffffffffff16148061070a57506107098161070461116d565b610f0b565b5b610749576040517f08c379a000000000000000000000000000000000000000000000000000000000815260040161074090612de3565b60405180910390fd5b6107538383611175565b505050565b61076961076361116d565b8261122e565b6107a8576040517f08c379a000000000000000000000000000000000000000000000000000000000815260040161079f90612f43565b60405180910390fd5b6107b383838361130c565b505050565b60006107c46008611568565b6108036040518060400160405280600a81526020017f546f6b656e2055524920000000000000000000000000000000000000000000008152508361157e565b61084b6040518060400160405280600981526020017f546f6b656e204944200000000000000000000000000000000000000000000000815250610846600861161a565b611628565b6000610857600861161a565b905061086333826116c4565b61086d81846116e2565b82600a60003373ffffffffffffffffffffffffffffffffffffffff1673ffffffffffffffffffffffffffffffffffffffff16815260200190815260200160002090805190602001906108c0929190612051565b5080915050919050565b6108e583838360405180602001604052806000815250610d57565b505050565b6060600a60008373ffffffffffffffffffffffffffffffffffffffff1673ffffffffffffffffffffffffffffffffffffffff1681526020019081526020016000208054610936906131c3565b80601f0160208091040260200160405190810160405280929190818152602001828054610962906131c3565b80156109af5780601f10610984576101008083540402835291602001916109af565b820191906000526020600020905b81548152906001019060200180831161099257829003601f168201915b50505050509050919050565b6000806002600084815260200190815260200160002060009054906101000a900473ffffffffffffffffffffffffffffffffffffffff169050600073ffffffffffffffffffffffffffffffffffffffff168173ffffffffffffffffffffffffffffffffffffffff161415610a64576040517f08c379a0000000000000000000000000000000000000000000000000000000008152600401610a5b90612e23565b60405180910390fd5b80915050919050565b6040518060400160405280601481526020017f416666696e69747943726561746f72546f6b656e00000000000000000000000081525081565b60008073ffffffffffffffffffffffffffffffffffffffff168273ffffffffffffffffffffffffffffffffffffffff161415610b17576040517f08c379a0000000000000000000000000000000000000000000000000000000008152600401610b0e90612e03565b60405180910390fd5b600360008373ffffffffffffffffffffffffffffffffffffffff1673ffffffffffffffffffffffffffffffffffffffff168152602001908152602001600020549050919050565b610b6661116d565b73ffffffffffffffffffffffffffffffffffffffff16610b84610c1f565b73ffffffffffffffffffffffffffffffffffffffff1614610bda576040517f08c379a0000000000000000000000000000000000000000000000000000000008152600401610bd190612ec3565b60405180910390fd5b610be46000611756565b565b6040518060400160405280600381526020017f414354000000000000000000000000000000000000000000000000000000000081525081565b6000600760009054906101000a900473ffffffffffffffffffffffffffffffffffffffff16905090565b606060018054610c58906131c3565b80601f0160208091040260200160405190810160405280929190818152602001828054610c84906131c3565b8015610cd15780601f10610ca657610100808354040283529160200191610cd1565b820191906000526020600020905b815481529060010190602001808311610cb457829003601f168201915b5050505050905090565b80600a60003373ffffffffffffffffffffffffffffffffffffffff1673ffffffffffffffffffffffffffffffffffffffff1681526020019081526020016000209080519060200190610d2e929190612051565b5050565b610d44610d3d61116d565b838361181c565b5050565b610d53338383610758565b5050565b610d68610d6261116d565b8361122e565b610da7576040517f08c379a0000000000000000000000000000000000000000000000000000000008152600401610d9e90612f43565b60405180910390fd5b610db384848484611989565b50505050565b6060610dc482611101565b610e03576040517f08c379a0000000000000000000000000000000000000000000000000000000008152600401610dfa90612e83565b60405180910390fd5b6000600660008481526020019081526020016000208054610e23906131c3565b80601f0160208091040260200160405190810160405280929190818152602001828054610e4f906131c3565b8015610e9c5780601f10610e7157610100808354040283529160200191610e9c565b820191906000526020600020905b815481529060010190602001808311610e7f57829003601f168201915b505050505090506000610ead6119e5565b9050600081511415610ec3578192505050610f06565b600082511115610ef8578082604051602001610ee0929190612bf4565b60405160208183030381529060405292505050610f06565b610f01846119fc565b925050505b919050565b6000600560008473ffffffffffffffffffffffffffffffffffffffff1673ffffffffffffffffffffffffffffffffffffffff16815260200190815260200160002060008373ffffffffffffffffffffffffffffffffffffffff1673ffffffffffffffffffffffffffffffffffffffff16815260200190815260200160002060009054906101000a900460ff16905092915050565b610fa761116d565b73ffffffffffffffffffffffffffffffffffffffff16610fc5610c1f565b73ffffffffffffffffffffffffffffffffffffffff161461101b576040517f08c379a000000000000000000000000000000000000000000000000000000000815260040161101290612ec3565b60405180910390fd5b600073ffffffffffffffffffffffffffffffffffffffff168173ffffffffffffffffffffffffffffffffffffffff16141561108b576040517f08c379a000000000000000000000000000000000000000000000000000000000815260040161108290612d43565b60405180910390fd5b61109481611756565b50565b60007f01ffc9a7000000000000000000000000000000000000000000000000000000007bffffffffffffffffffffffffffffffffffffffffffffffffffffffff1916827bffffffffffffffffffffffffffffffffffffffffffffffffffffffff1916149050919050565b60008073ffffffffffffffffffffffffffffffffffffffff166002600084815260200190815260200160002060009054906101000a900473ffffffffffffffffffffffffffffffffffffffff1673ffffffffffffffffffffffffffffffffffffffff1614159050919050565b600033905090565b816004600083815260200190815260200160002060006101000a81548173ffffffffffffffffffffffffffffffffffffffff021916908373ffffffffffffffffffffffffffffffffffffffff160217905550808273ffffffffffffffffffffffffffffffffffffffff166111e8836109bb565b73ffffffffffffffffffffffffffffffffffffffff167f8c5be1e5ebec7d5bd14f71427d1e84f3dd0314c0f7b2291e5b200ac8c7c3b92560405160405180910390a45050565b600061123982611101565b611278576040517f08c379a000000000000000000000000000000000000000000000000000000000815260040161126f90612dc3565b60405180910390fd5b6000611283836109bb565b90508073ffffffffffffffffffffffffffffffffffffffff168473ffffffffffffffffffffffffffffffffffffffff1614806112f257508373ffffffffffffffffffffffffffffffffffffffff166112da846105bb565b73ffffffffffffffffffffffffffffffffffffffff16145b8061130357506113028185610f0b565b5b91505092915050565b8273ffffffffffffffffffffffffffffffffffffffff1661132c826109bb565b73ffffffffffffffffffffffffffffffffffffffff1614611382576040517f08c379a000000000000000000000000000000000000000000000000000000000815260040161137990612ee3565b60405180910390fd5b600073ffffffffffffffffffffffffffffffffffffffff168273ffffffffffffffffffffffffffffffffffffffff1614156113f2576040517f08c379a00000000000000000000000000000000000000000000000000000000081526004016113e990612d83565b60405180910390fd5b6113fd838383611aa3565b611408600082611175565b6001600360008573ffffffffffffffffffffffffffffffffffffffff1673ffffffffffffffffffffffffffffffffffffffff168152602001908152602001600020600082825461145891906130d9565b925050819055506001600360008473ffffffffffffffffffffffffffffffffffffffff1673ffffffffffffffffffffffffffffffffffffffff16815260200190815260200160002060008282546114af9190613052565b92505081905550816002600083815260200190815260200160002060006101000a81548173ffffffffffffffffffffffffffffffffffffffff021916908373ffffffffffffffffffffffffffffffffffffffff160217905550808273ffffffffffffffffffffffffffffffffffffffff168473ffffffffffffffffffffffffffffffffffffffff167fddf252ad1be2c89b69c2b068fc378daa952ba7f163c4a11628f55a4df523b3ef60405160405180910390a4505050565b6001816000016000828254019250508190555050565b6116168282604051602401611594929190612cbc565b6040516020818303038152906040527f4b5c4277000000000000000000000000000000000000000000000000000000007bffffffffffffffffffffffffffffffffffffffffffffffffffffffff19166020820180517bffffffffffffffffffffffffffffffffffffffffffffffffffffffff8381831617835250505050611aa8565b5050565b600081600001549050919050565b6116c0828260405160240161163e929190612cf3565b6040516020818303038152906040527f9710a9d0000000000000000000000000000000000000000000000000000000007bffffffffffffffffffffffffffffffffffffffffffffffffffffffff19166020820180517bffffffffffffffffffffffffffffffffffffffffffffffffffffffff8381831617835250505050611aa8565b5050565b6116de828260405180602001604052806000815250611ad1565b5050565b6116eb82611101565b61172a576040517f08c379a000000000000000000000000000000000000000000000000000000000815260040161172190612e43565b60405180910390fd5b80600660008481526020019081526020016000209080519060200190611751929190612051565b505050565b6000600760009054906101000a900473ffffffffffffffffffffffffffffffffffffffff16905081600760006101000a81548173ffffffffffffffffffffffffffffffffffffffff021916908373ffffffffffffffffffffffffffffffffffffffff1602179055508173ffffffffffffffffffffffffffffffffffffffff168173ffffffffffffffffffffffffffffffffffffffff167f8be0079c531659141344cd1fd0a4f28419497f9722a3daafe3b4186f6b6457e060405160405180910390a35050565b8173ffffffffffffffffffffffffffffffffffffffff168373ffffffffffffffffffffffffffffffffffffffff16141561188b576040517f08c379a000000000000000000000000000000000000000000000000000000000815260040161188290612da3565b60405180910390fd5b80600560008573ffffffffffffffffffffffffffffffffffffffff1673ffffffffffffffffffffffffffffffffffffffff16815260200190815260200160002060008473ffffffffffffffffffffffffffffffffffffffff1673ffffffffffffffffffffffffffffffffffffffff16815260200190815260200160002060006101000a81548160ff0219169083151502179055508173ffffffffffffffffffffffffffffffffffffffff168373ffffffffffffffffffffffffffffffffffffffff167f17307eab39ab6107e8899845ad3d59bd9653f200f220920489ca2b5937696c318360405161197c9190612c7f565b60405180910390a3505050565b61199484848461130c565b6119a084848484611b2c565b6119df576040517f08c379a00000000000000000000000000000000000000000000000000000000081526004016119d690612d23565b60405180910390fd5b50505050565b606060405180602001604052806000815250905090565b6060611a0782611101565b611a46576040517f08c379a0000000000000000000000000000000000000000000000000000000008152600401611a3d90612f03565b60405180910390fd5b6000611a506119e5565b90506000815111611a705760405180602001604052806000815250611a9b565b80611a7a84611cc3565b604051602001611a8b929190612bf4565b6040516020818303038152906040525b915050919050565b505050565b60008151905060006a636f6e736f6c652e6c6f679050602083016000808483855afa5050505050565b611adb8383611e70565b611ae86000848484611b2c565b611b27576040517f08c379a0000000000000000000000000000000000000000000000000000000008152600401611b1e90612d23565b60405180910390fd5b505050565b6000611b4d8473ffffffffffffffffffffffffffffffffffffffff1661203e565b15611cb6578373ffffffffffffffffffffffffffffffffffffffff1663150b7a02611b7661116d565b8786866040518563ffffffff1660e01b8152600401611b989493929190612c33565b602060405180830381600087803b158015611bb257600080fd5b505af1925050508015611be357506040513d601f19601f82011682018060405250810190611be091906123fd565b60015b611c66573d8060008114611c13576040519150601f19603f3d011682016040523d82523d6000602084013e611c18565b606091505b50600081511415611c5e576040517f08c379a0000000000000000000000000000000000000000000000000000000008152600401611c5590612d23565b60405180910390fd5b805181602001fd5b63150b7a0260e01b7bffffffffffffffffffffffffffffffffffffffffffffffffffffffff1916817bffffffffffffffffffffffffffffffffffffffffffffffffffffffff191614915050611cbb565b600190505b949350505050565b60606000821415611d0b576040518060400160405280600181526020017f30000000000000000000000000000000000000000000000000000000000000008152509050611e6b565b600082905060005b60008214611d3d578080611d26906131f5565b915050600a82611d3691906130a8565b9150611d13565b60008167ffffffffffffffff811115611d7f577f4e487b7100000000000000000000000000000000000000000000000000000000600052604160045260246000fd5b6040519080825280601f01601f191660200182016040528015611db15781602001600182028036833780820191505090505b5090505b60008514611e6457600182611dca91906130d9565b9150600a85611dd9919061323e565b6030611de59190613052565b60f81b818381518110611e21577f4e487b7100000000000000000000000000000000000000000000000000000000600052603260045260246000fd5b60200101907effffffffffffffffffffffffffffffffffffffffffffffffffffffffffffff1916908160001a905350600a85611e5d91906130a8565b9450611db5565b8093505050505b919050565b600073ffffffffffffffffffffffffffffffffffffffff168273ffffffffffffffffffffffffffffffffffffffff161415611ee0576040517f08c379a0000000000000000000000000000000000000000000000000000000008152600401611ed790612e63565b60405180910390fd5b611ee981611101565b15611f29576040517f08c379a0000000000000000000000000000000000000000000000000000000008152600401611f2090612d63565b60405180910390fd5b611f3560008383611aa3565b6001600360008473ffffffffffffffffffffffffffffffffffffffff1673ffffffffffffffffffffffffffffffffffffffff1681526020019081526020016000206000828254611f859190613052565b92505081905550816002600083815260200190815260200160002060006101000a81548173ffffffffffffffffffffffffffffffffffffffff021916908373ffffffffffffffffffffffffffffffffffffffff160217905550808273ffffffffffffffffffffffffffffffffffffffff16600073ffffffffffffffffffffffffffffffffffffffff167fddf252ad1be2c89b69c2b068fc378daa952ba7f163c4a11628f55a4df523b3ef60405160405180910390a45050565b600080823b905060008111915050919050565b82805461205d906131c3565b90600052602060002090601f01602090048101928261207f57600085556120c6565b82601f1061209857805160ff19168380011785556120c6565b828001600101855582156120c6579182015b828111156120c55782518255916020019190600101906120aa565b5b5090506120d391906120d7565b5090565b5b808211156120f05760008160009055506001016120d8565b5090565b600061210761210284612faf565b612f7e565b90508281526020810184848401111561211f57600080fd5b61212a848285613181565b509392505050565b600061214561214084612fdf565b612f7e565b90508281526020810184848401111561215d57600080fd5b612168848285613181565b509392505050565b60008135905061217f8161333c565b92915050565b60008135905061219481613353565b92915050565b6000813590506121a98161336a565b92915050565b6000815190506121be8161336a565b92915050565b600082601f8301126121d557600080fd5b81356121e58482602086016120f4565b91505092915050565b600082601f8301126121ff57600080fd5b813561220f848260208601612132565b91505092915050565b60008135905061222781613381565b92915050565b60006020828403121561223f57600080fd5b600061224d84828501612170565b91505092915050565b6000806040838503121561226957600080fd5b600061227785828601612170565b925050602061228885828601612170565b9150509250929050565b6000806000606084860312156122a757600080fd5b60006122b586828701612170565b93505060206122c686828701612170565b92505060406122d786828701612218565b9150509250925092565b600080600080608085870312156122f757600080fd5b600061230587828801612170565b945050602061231687828801612170565b935050604061232787828801612218565b925050606085013567ffffffffffffffff81111561234457600080fd5b612350878288016121c4565b91505092959194509250565b6000806040838503121561236f57600080fd5b600061237d85828601612170565b925050602061238e85828601612185565b9150509250929050565b600080604083850312156123ab57600080fd5b60006123b985828601612170565b92505060206123ca85828601612218565b9150509250929050565b6000602082840312156123e657600080fd5b60006123f48482850161219a565b91505092915050565b60006020828403121561240f57600080fd5b600061241d848285016121af565b91505092915050565b60006020828403121561243857600080fd5b600082013567ffffffffffffffff81111561245257600080fd5b61245e848285016121ee565b91505092915050565b60006020828403121561247957600080fd5b600061248784828501612218565b91505092915050565b6124998161310d565b82525050565b6124a88161311f565b82525050565b60006124b98261300f565b6124c38185613025565b93506124d3818560208601613190565b6124dc8161332b565b840191505092915050565b60006124f28261301a565b6124fc8185613036565b935061250c818560208601613190565b6125158161332b565b840191505092915050565b600061252b8261301a565b6125358185613047565b9350612545818560208601613190565b80840191505092915050565b600061255e603283613036565b91507f4552433732313a207472616e7366657220746f206e6f6e20455243373231526560008301527f63656976657220696d706c656d656e74657200000000000000000000000000006020830152604082019050919050565b60006125c4602683613036565b91507f4f776e61626c653a206e6577206f776e657220697320746865207a65726f206160008301527f64647265737300000000000000000000000000000000000000000000000000006020830152604082019050919050565b600061262a601c83613036565b91507f4552433732313a20746f6b656e20616c7265616479206d696e746564000000006000830152602082019050919050565b600061266a602483613036565b91507f4552433732313a207472616e7366657220746f20746865207a65726f2061646460008301527f72657373000000000000000000000000000000000000000000000000000000006020830152604082019050919050565b60006126d0601983613036565b91507f4552433732313a20617070726f766520746f2063616c6c6572000000000000006000830152602082019050919050565b6000612710602c83613036565b91507f4552433732313a206f70657261746f7220717565727920666f72206e6f6e657860008301527f697374656e7420746f6b656e00000000000000000000000000000000000000006020830152604082019050919050565b6000612776603883613036565b91507f4552433732313a20617070726f76652063616c6c6572206973206e6f74206f7760008301527f6e6572206e6f7220617070726f76656420666f7220616c6c00000000000000006020830152604082019050919050565b60006127dc602a83613036565b91507f4552433732313a2062616c616e636520717565727920666f7220746865207a6560008301527f726f2061646472657373000000000000000000000000000000000000000000006020830152604082019050919050565b6000612842602983613036565b91507f4552433732313a206f776e657220717565727920666f72206e6f6e657869737460008301527f656e7420746f6b656e00000000000000000000000000000000000000000000006020830152604082019050919050565b60006128a8602e83613036565b91507f45524337323155524953746f726167653a2055524920736574206f66206e6f6e60008301527f6578697374656e7420746f6b656e0000000000000000000000000000000000006020830152604082019050919050565b600061290e602083613036565b91507f4552433732313a206d696e7420746f20746865207a65726f20616464726573736000830152602082019050919050565b600061294e603183613036565b91507f45524337323155524953746f726167653a2055524920717565727920666f722060008301527f6e6f6e6578697374656e7420746f6b656e0000000000000000000000000000006020830152604082019050919050565b60006129b4602c83613036565b91507f4552433732313a20617070726f76656420717565727920666f72206e6f6e657860008301527f697374656e7420746f6b656e00000000000000000000000000000000000000006020830152604082019050919050565b6000612a1a602083613036565b91507f4f776e61626c653a2063616c6c6572206973206e6f7420746865206f776e65726000830152602082019050919050565b6000612a5a602983613036565b91507f4552433732313a207472616e73666572206f6620746f6b656e2074686174206960008301527f73206e6f74206f776e00000000000000000000000000000000000000000000006020830152604082019050919050565b6000612ac0602f83613036565b91507f4552433732314d657461646174613a2055524920717565727920666f72206e6f60008301527f6e6578697374656e7420746f6b656e00000000000000000000000000000000006020830152604082019050919050565b6000612b26602183613036565b91507f4552433732313a20617070726f76616c20746f2063757272656e74206f776e6560008301527f72000000000000000000000000000000000000000000000000000000000000006020830152604082019050919050565b6000612b8c603183613036565b91507f4552433732313a207472616e736665722063616c6c6572206973206e6f74206f60008301527f776e6572206e6f7220617070726f7665640000000000000000000000000000006020830152604082019050919050565b612bee81613177565b82525050565b6000612c008285612520565b9150612c0c8284612520565b91508190509392505050565b6000602082019050612c2d6000830184612490565b92915050565b6000608082019050612c486000830187612490565b612c556020830186612490565b612c626040830185612be5565b8181036060830152612c7481846124ae565b905095945050505050565b6000602082019050612c94600083018461249f565b92915050565b60006020820190508181036000830152612cb481846124e7565b905092915050565b60006040820190508181036000830152612cd681856124e7565b90508181036020830152612cea81846124e7565b90509392505050565b60006040820190508181036000830152612d0d81856124e7565b9050612d1c6020830184612be5565b9392505050565b60006020820190508181036000830152612d3c81612551565b9050919050565b60006020820190508181036000830152612d5c816125b7565b9050919050565b60006020820190508181036000830152612d7c8161261d565b9050919050565b60006020820190508181036000830152612d9c8161265d565b9050919050565b60006020820190508181036000830152612dbc816126c3565b9050919050565b60006020820190508181036000830152612ddc81612703565b9050919050565b60006020820190508181036000830152612dfc81612769565b9050919050565b60006020820190508181036000830152612e1c816127cf565b9050919050565b60006020820190508181036000830152612e3c81612835565b9050919050565b60006020820190508181036000830152612e5c8161289b565b9050919050565b60006020820190508181036000830152612e7c81612901565b9050919050565b60006020820190508181036000830152612e9c81612941565b9050919050565b60006020820190508181036000830152612ebc816129a7565b9050919050565b60006020820190508181036000830152612edc81612a0d565b9050919050565b60006020820190508181036000830152612efc81612a4d565b9050919050565b60006020820190508181036000830152612f1c81612ab3565b9050919050565b60006020820190508181036000830152612f3c81612b19565b9050919050565b60006020820190508181036000830152612f5c81612b7f565b9050919050565b6000602082019050612f786000830184612be5565b92915050565b6000604051905081810181811067ffffffffffffffff82111715612fa557612fa46132fc565b5b8060405250919050565b600067ffffffffffffffff821115612fca57612fc96132fc565b5b601f19601f8301169050602081019050919050565b600067ffffffffffffffff821115612ffa57612ff96132fc565b5b601f19601f8301169050602081019050919050565b600081519050919050565b600081519050919050565b600082825260208201905092915050565b600082825260208201905092915050565b600081905092915050565b600061305d82613177565b915061306883613177565b9250827fffffffffffffffffffffffffffffffffffffffffffffffffffffffffffffffff0382111561309d5761309c61326f565b5b828201905092915050565b60006130b382613177565b91506130be83613177565b9250826130ce576130cd61329e565b5b828204905092915050565b60006130e482613177565b91506130ef83613177565b9250828210156131025761310161326f565b5b828203905092915050565b600061311882613157565b9050919050565b60008115159050919050565b60007fffffffff0000000000000000000000000000000000000000000000000000000082169050919050565b600073ffffffffffffffffffffffffffffffffffffffff82169050919050565b6000819050919050565b82818337600083830152505050565b60005b838110156131ae578082015181840152602081019050613193565b838111156131bd576000848401525b50505050565b600060028204905060018216806131db57607f821691505b602082108114156131ef576131ee6132cd565b5b50919050565b600061320082613177565b91507fffffffffffffffffffffffffffffffffffffffffffffffffffffffffffffffff8214156132335761323261326f565b5b600182019050919050565b600061324982613177565b915061325483613177565b9250826132645761326361329e565b5b828206905092915050565b7f4e487b7100000000000000000000000000000000000000000000000000000000600052601160045260246000fd5b7f4e487b7100000000000000000000000000000000000000000000000000000000600052601260045260246000fd5b7f4e487b7100000000000000000000000000000000000000000000000000000000600052602260045260246000fd5b7f4e487b7100000000000000000000000000000000000000000000000000000000600052604160045260246000fd5b6000601f19601f8301169050919050565b6133458161310d565b811461335057600080fd5b50565b61335c8161311f565b811461336757600080fd5b50565b6133738161312b565b811461337e57600080fd5b50565b61338a81613177565b811461339557600080fd5b5056fea2646970667358221220fc022889ab951bc6669923a52af078e00c864e022b6e77400b415aaee8868ab764736f6c63430008000033",
  "linkReferences": {},
  "deployedLinkReferences": {}
}