{
  "_format": "hh-sol-artifact-1",
  "contractName": "CreatorNFT",
  "sourceName": "contracts/CreatorNFT.sol",
  "abi": [
    {
      "inputs": [],
      "stateMutability": "nonpayable",
      "type": "constructor"
    },
    {
      "anonymous": false,
      "inputs": [
        {
          "indexed": true,
          "internalType": "address",
          "name": "owner",
          "type": "address"
        },
        {
          "indexed": true,
          "internalType": "address",
          "name": "approved",
          "type": "address"
        },
        {
          "indexed": true,
          "internalType": "uint256",
          "name": "tokenId",
          "type": "uint256"
        }
      ],
      "name": "Approval",
      "type": "event"
    },
    {
      "anonymous": false,
      "inputs": [
        {
          "indexed": true,
          "internalType": "address",
          "name": "owner",
          "type": "address"
        },
        {
          "indexed": true,
          "internalType": "address",
          "name": "operator",
          "type": "address"
        },
        {
          "indexed": false,
          "internalType": "bool",
          "name": "approved",
          "type": "bool"
        }
      ],
      "name": "ApprovalForAll",
      "type": "event"
    },
    {
      "anonymous": false,
      "inputs": [
        {
          "indexed": true,
          "internalType": "address",
          "name": "previousOwner",
          "type": "address"
        },
        {
          "indexed": true,
          "internalType": "address",
          "name": "newOwner",
          "type": "address"
        }
      ],
      "name": "OwnershipTransferred",
      "type": "event"
    },
    {
      "anonymous": false,
      "inputs": [
        {
          "indexed": true,
          "internalType": "address",
          "name": "from",
          "type": "address"
        },
        {
          "indexed": true,
          "internalType": "address",
          "name": "to",
          "type": "address"
        },
        {
          "indexed": true,
          "internalType": "uint256",
          "name": "tokenId",
          "type": "uint256"
        }
      ],
      "name": "Transfer",
      "type": "event"
    },
    {
      "inputs": [
        {
          "internalType": "address",
          "name": "_approved",
          "type": "address"
        },
        {
          "internalType": "uint256",
          "name": "_tokenId",
          "type": "uint256"
        }
      ],
      "name": "approve",
      "outputs": [],
      "stateMutability": "nonpayable",
      "type": "function"
    },
    {
      "inputs": [
        {
          "internalType": "address",
          "name": "owner",
          "type": "address"
        }
      ],
      "name": "balanceOf",
      "outputs": [
        {
          "internalType": "uint256",
          "name": "",
          "type": "uint256"
        }
      ],
      "stateMutability": "view",
      "type": "function"
    },
    {
      "inputs": [
        {
          "internalType": "uint256",
          "name": "tokenId",
          "type": "uint256"
        }
      ],
      "name": "getApproved",
      "outputs": [
        {
          "internalType": "address",
          "name": "",
          "type": "address"
        }
      ],
      "stateMutability": "view",
      "type": "function"
    },
    {
      "inputs": [
        {
          "internalType": "address",
          "name": "owner",
          "type": "address"
        },
        {
          "internalType": "address",
          "name": "operator",
          "type": "address"
        }
      ],
      "name": "isApprovedForAll",
      "outputs": [
        {
          "internalType": "bool",
          "name": "",
          "type": "bool"
        }
      ],
      "stateMutability": "view",
      "type": "function"
    },
    {
      "inputs": [
        {
          "internalType": "string",
          "name": "_tokenURI",
          "type": "string"
        }
      ],
      "name": "mintToken",
      "outputs": [
        {
          "internalType": "uint256",
          "name": "",
          "type": "uint256"
        }
      ],
      "stateMutability": "nonpayable",
      "type": "function"
    },
    {
      "inputs": [],
      "name": "name",
      "outputs": [
        {
          "internalType": "string",
          "name": "",
          "type": "string"
        }
      ],
      "stateMutability": "view",
      "type": "function"
    },
    {
      "inputs": [],
      "name": "owner",
      "outputs": [
        {
          "internalType": "address",
          "name": "",
          "type": "address"
        }
      ],
      "stateMutability": "view",
      "type": "function"
    },
    {
      "inputs": [
        {
          "internalType": "uint256",
          "name": "_tokenId",
          "type": "uint256"
        }
      ],
      "name": "ownerOf",
      "outputs": [
        {
          "internalType": "address",
          "name": "",
          "type": "address"
        }
      ],
      "stateMutability": "view",
      "type": "function"
    },
    {
      "inputs": [],
      "name": "renounceOwnership",
      "outputs": [],
      "stateMutability": "nonpayable",
      "type": "function"
    },
    {
      "inputs": [
        {
          "internalType": "address",
          "name": "from",
          "type": "address"
        },
        {
          "internalType": "address",
          "name": "to",
          "type": "address"
        },
        {
          "internalType": "uint256",
          "name": "tokenId",
          "type": "uint256"
        }
      ],
      "name": "safeTransferFrom",
      "outputs": [],
      "stateMutability": "nonpayable",
      "type": "function"
    },
    {
      "inputs": [
        {
          "internalType": "address",
          "name": "from",
          "type": "address"
        },
        {
          "internalType": "address",
          "name": "to",
          "type": "address"
        },
        {
          "internalType": "uint256",
          "name": "tokenId",
          "type": "uint256"
        },
        {
          "internalType": "bytes",
          "name": "_data",
          "type": "bytes"
        }
      ],
      "name": "safeTransferFrom",
      "outputs": [],
      "stateMutability": "nonpayable",
      "type": "function"
    },
    {
      "inputs": [
        {
          "internalType": "address",
          "name": "operator",
          "type": "address"
        },
        {
          "internalType": "bool",
          "name": "approved",
          "type": "bool"
        }
      ],
      "name": "setApprovalForAll",
      "outputs": [],
      "stateMutability": "nonpayable",
      "type": "function"
    },
    {
      "inputs": [
        {
          "internalType": "bytes4",
          "name": "interfaceId",
          "type": "bytes4"
        }
      ],
      "name": "supportsInterface",
      "outputs": [
        {
          "internalType": "bool",
          "name": "",
          "type": "bool"
        }
      ],
      "stateMutability": "view",
      "type": "function"
    },
    {
      "inputs": [],
      "name": "symbol",
      "outputs": [
        {
          "internalType": "string",
          "name": "",
          "type": "string"
        }
      ],
      "stateMutability": "view",
      "type": "function"
    },
    {
      "inputs": [],
      "name": "tokenName",
      "outputs": [
        {
          "internalType": "string",
          "name": "",
          "type": "string"
        }
      ],
      "stateMutability": "view",
      "type": "function"
    },
    {
      "inputs": [],
      "name": "tokenSymbol",
      "outputs": [
        {
          "internalType": "string",
          "name": "",
          "type": "string"
        }
      ],
      "stateMutability": "view",
      "type": "function"
    },
    {
      "inputs": [
        {
          "internalType": "uint256",
          "name": "__tokenId",
          "type": "uint256"
        }
      ],
      "name": "tokenURI",
      "outputs": [
        {
          "internalType": "string",
          "name": "",
          "type": "string"
        }
      ],
      "stateMutability": "view",
      "type": "function"
    },
    {
      "inputs": [
        {
          "internalType": "address",
          "name": "to",
          "type": "address"
        },
        {
          "internalType": "uint256",
          "name": "_tokenId",
          "type": "uint256"
        }
      ],
      "name": "transfer",
      "outputs": [],
      "stateMutability": "nonpayable",
      "type": "function"
    },
    {
      "inputs": [
        {
          "internalType": "address",
          "name": "from",
          "type": "address"
        },
        {
          "internalType": "address",
          "name": "to",
          "type": "address"
        },
        {
          "internalType": "uint256",
          "name": "tokenId",
          "type": "uint256"
        }
      ],
      "name": "transferFrom",
      "outputs": [],
      "stateMutability": "nonpayable",
      "type": "function"
    },
    {
      "inputs": [
        {
          "internalType": "address",
          "name": "newOwner",
          "type": "address"
        }
      ],
      "name": "transferOwnership",
      "outputs": [],
      "stateMutability": "nonpayable",
      "type": "function"
    }
  ],
  "bytecode": "0x60806040523480156200001157600080fd5b506040518060400160405280600c81526020017f43726561746f72546f6b656e00000000000000000000000000000000000000008152506040518060400160405280600281526020017f43540000000000000000000000000000000000000000000000000000000000008152506200009e62000092620000d860201b60201c565b620000e060201b60201c565b8160019080519060200190620000b6929190620001a4565b508060029080519060200190620000cf929190620001a4565b505050620002b9565b600033905090565b60008060009054906101000a900473ffffffffffffffffffffffffffffffffffffffff169050816000806101000a81548173ffffffffffffffffffffffffffffffffffffffff021916908373ffffffffffffffffffffffffffffffffffffffff1602179055508173ffffffffffffffffffffffffffffffffffffffff168173ffffffffffffffffffffffffffffffffffffffff167f8be0079c531659141344cd1fd0a4f28419497f9722a3daafe3b4186f6b6457e060405160405180910390a35050565b828054620001b29062000254565b90600052602060002090601f016020900481019282620001d6576000855562000222565b82601f10620001f157805160ff191683800117855562000222565b8280016001018555821562000222579182015b828111156200022157825182559160200191906001019062000204565b5b50905062000231919062000235565b5090565b5b808211156200025057600081600090555060010162000236565b5090565b600060028204905060018216806200026d57607f821691505b602082108114156200028457620002836200028a565b5b50919050565b7f4e487b7100000000000000000000000000000000000000000000000000000000600052602260045260246000fd5b612dbb80620002c96000396000f3fe608060405234801561001057600080fd5b506004361061012c5760003560e01c8063715018a6116100ad578063a9059cbb11610071578063a9059cbb14610331578063b88d4fde1461034d578063c87b56dd14610369578063e985e9c514610399578063f2fde38b146103c95761012c565b8063715018a6146102b15780637b61c320146102bb5780638da5cb5b146102d957806395d89b41146102f7578063a22cb465146103155761012c565b806333eba49a116100f457806333eba49a146101e757806342842e0e146102175780636352211e146102335780636c02a9311461026357806370a08231146102815761012c565b806301ffc9a71461013157806306fdde0314610161578063081812fc1461017f578063095ea7b3146101af57806323b872dd146101cb575b600080fd5b61014b60048036038101906101469190611f34565b6103e5565b6040516101589190612713565b60405180910390f35b6101696104c7565b604051610176919061272e565b60405180910390f35b61019960048036038101906101949190611fc7565b610559565b6040516101a691906126ac565b60405180910390f35b6101c960048036038101906101c49190611ef8565b6105de565b005b6101e560048036038101906101e09190611df2565b6106bd565b005b61020160048036038101906101fc9190611f86565b61071d565b60405161020e9190612950565b60405180910390f35b610231600480360381019061022c9190611df2565b610754565b005b61024d60048036038101906102489190611fc7565b610774565b60405161025a91906126ac565b60405180910390f35b61026b6107b1565b604051610278919061272e565b60405180910390f35b61029b60048036038101906102969190611d8d565b6107ea565b6040516102a89190612950565b60405180910390f35b6102b96108a2565b005b6102c361092a565b6040516102d0919061272e565b60405180910390f35b6102e1610963565b6040516102ee91906126ac565b60405180910390f35b6102ff61098c565b60405161030c919061272e565b60405180910390f35b61032f600480360381019061032a9190611ebc565b610a1e565b005b61034b60048036038101906103469190611ef8565b610a34565b005b61036760048036038101906103629190611e41565b610a43565b005b610383600480360381019061037e9190611fc7565b610aa5565b604051610390919061272e565b60405180910390f35b6103b360048036038101906103ae9190611db6565b610b4c565b6040516103c09190612713565b60405180910390f35b6103e360048036038101906103de9190611d8d565b610be0565b005b60007f80ac58cd000000000000000000000000000000000000000000000000000000007bffffffffffffffffffffffffffffffffffffffffffffffffffffffff1916827bffffffffffffffffffffffffffffffffffffffffffffffffffffffff191614806104b057507f5b5e139f000000000000000000000000000000000000000000000000000000007bffffffffffffffffffffffffffffffffffffffffffffffffffffffff1916827bffffffffffffffffffffffffffffffffffffffffffffffffffffffff1916145b806104c057506104bf82610cd8565b5b9050919050565b6060600180546104d690612bb0565b80601f016020809104026020016040519081016040528092919081815260200182805461050290612bb0565b801561054f5780601f106105245761010080835404028352916020019161054f565b820191906000526020600020905b81548152906001019060200180831161053257829003601f168201915b5050505050905090565b600061056482610d42565b6105a3576040517f08c379a000000000000000000000000000000000000000000000000000000000815260040161059a906128b0565b60405180910390fd5b6005600083815260200190815260200160002060009054906101000a900473ffffffffffffffffffffffffffffffffffffffff169050919050565b6105e83382610dae565b610627576040517f08c379a000000000000000000000000000000000000000000000000000000000815260040161061e90612930565b60405180910390fd5b8173ffffffffffffffffffffffffffffffffffffffff16600c600083815260200190815260200160002060009054906101000a90505050808273ffffffffffffffffffffffffffffffffffffffff163373ffffffffffffffffffffffffffffffffffffffff167f8c5be1e5ebec7d5bd14f71427d1e84f3dd0314c0f7b2291e5b200ac8c7c3b92560405160405180910390a45050565b6106ce6106c8610e25565b82610e2d565b61070d576040517f08c379a000000000000000000000000000000000000000000000000000000000815260040161070490612910565b60405180910390fd5b610718838383610f0b565b505050565b60006107296008611167565b6000610735600861117d565b9050610741338261118b565b61074b81846111a9565b80915050919050565b61076f83838360405180602001604052806000815250610a43565b505050565b60006009600083815260200190815260200160002060009054906101000a900473ffffffffffffffffffffffffffffffffffffffff169050919050565b6040518060400160405280600c81526020017f43726561746f72546f6b656e000000000000000000000000000000000000000081525081565b60008073ffffffffffffffffffffffffffffffffffffffff168273ffffffffffffffffffffffffffffffffffffffff16141561085b576040517f08c379a000000000000000000000000000000000000000000000000000000000815260040161085290612810565b60405180910390fd5b600460008373ffffffffffffffffffffffffffffffffffffffff1673ffffffffffffffffffffffffffffffffffffffff168152602001908152602001600020549050919050565b6108aa610e25565b73ffffffffffffffffffffffffffffffffffffffff166108c8610963565b73ffffffffffffffffffffffffffffffffffffffff161461091e576040517f08c379a0000000000000000000000000000000000000000000000000000000008152600401610915906128d0565b60405180910390fd5b610928600061121d565b565b6040518060400160405280600281526020017f435400000000000000000000000000000000000000000000000000000000000081525081565b60008060009054906101000a900473ffffffffffffffffffffffffffffffffffffffff16905090565b60606002805461099b90612bb0565b80601f01602080910402602001604051908101604052809291908181526020018280546109c790612bb0565b8015610a145780601f106109e957610100808354040283529160200191610a14565b820191906000526020600020905b8154815290600101906020018083116109f757829003601f168201915b5050505050905090565b610a30610a29610e25565b83836112e1565b5050565b610a3f3383836106bd565b5050565b610a54610a4e610e25565b83610e2d565b610a93576040517f08c379a0000000000000000000000000000000000000000000000000000000008152600401610a8a90612910565b60405180910390fd5b610a9f8484848461144e565b50505050565b6060610ab082610d42565b610aef576040517f08c379a0000000000000000000000000000000000000000000000000000000008152600401610ae690612890565b60405180910390fd5b6000610af96114aa565b90506000815111610b195760405180602001604052806000815250610b44565b80610b23846114c1565b604051602001610b34929190612688565b6040516020818303038152906040525b915050919050565b6000600660008473ffffffffffffffffffffffffffffffffffffffff1673ffffffffffffffffffffffffffffffffffffffff16815260200190815260200160002060008373ffffffffffffffffffffffffffffffffffffffff1673ffffffffffffffffffffffffffffffffffffffff16815260200190815260200160002060009054906101000a900460ff16905092915050565b610be8610e25565b73ffffffffffffffffffffffffffffffffffffffff16610c06610963565b73ffffffffffffffffffffffffffffffffffffffff1614610c5c576040517f08c379a0000000000000000000000000000000000000000000000000000000008152600401610c53906128d0565b60405180910390fd5b600073ffffffffffffffffffffffffffffffffffffffff168173ffffffffffffffffffffffffffffffffffffffff161415610ccc576040517f08c379a0000000000000000000000000000000000000000000000000000000008152600401610cc390612770565b60405180910390fd5b610cd58161121d565b50565b60007f01ffc9a7000000000000000000000000000000000000000000000000000000007bffffffffffffffffffffffffffffffffffffffffffffffffffffffff1916827bffffffffffffffffffffffffffffffffffffffffffffffffffffffff1916149050919050565b60008073ffffffffffffffffffffffffffffffffffffffff166003600084815260200190815260200160002060009054906101000a900473ffffffffffffffffffffffffffffffffffffffff1673ffffffffffffffffffffffffffffffffffffffff1614159050919050565b60008273ffffffffffffffffffffffffffffffffffffffff166009600084815260200190815260200160002060009054906101000a900473ffffffffffffffffffffffffffffffffffffffff1673ffffffffffffffffffffffffffffffffffffffff1614610e1b57600080fd5b6001905092915050565b600033905090565b6000610e3882610d42565b610e77576040517f08c379a0000000000000000000000000000000000000000000000000000000008152600401610e6e906127f0565b60405180910390fd5b6000610e828361166e565b90508073ffffffffffffffffffffffffffffffffffffffff168473ffffffffffffffffffffffffffffffffffffffff161480610ef157508373ffffffffffffffffffffffffffffffffffffffff16610ed984610559565b73ffffffffffffffffffffffffffffffffffffffff16145b80610f025750610f018185610b4c565b5b91505092915050565b8273ffffffffffffffffffffffffffffffffffffffff16610f2b8261166e565b73ffffffffffffffffffffffffffffffffffffffff1614610f81576040517f08c379a0000000000000000000000000000000000000000000000000000000008152600401610f78906128f0565b60405180910390fd5b600073ffffffffffffffffffffffffffffffffffffffff168273ffffffffffffffffffffffffffffffffffffffff161415610ff1576040517f08c379a0000000000000000000000000000000000000000000000000000000008152600401610fe8906127b0565b60405180910390fd5b610ffc838383611720565b611007600082611725565b6001600460008573ffffffffffffffffffffffffffffffffffffffff1673ffffffffffffffffffffffffffffffffffffffff16815260200190815260200160002060008282546110579190612ac6565b925050819055506001600460008473ffffffffffffffffffffffffffffffffffffffff1673ffffffffffffffffffffffffffffffffffffffff16815260200190815260200160002060008282546110ae9190612a3f565b92505081905550816003600083815260200190815260200160002060006101000a81548173ffffffffffffffffffffffffffffffffffffffff021916908373ffffffffffffffffffffffffffffffffffffffff160217905550808273ffffffffffffffffffffffffffffffffffffffff168473ffffffffffffffffffffffffffffffffffffffff167fddf252ad1be2c89b69c2b068fc378daa952ba7f163c4a11628f55a4df523b3ef60405160405180910390a4505050565b6001816000016000828254019250508190555050565b600081600001549050919050565b6111a58282604051806020016040528060008152506117de565b5050565b6111b282610d42565b6111f1576040517f08c379a00000000000000000000000000000000000000000000000000000000081526004016111e890612850565b60405180910390fd5b80600760008481526020019081526020016000209080519060200190611218929190611bb1565b505050565b60008060009054906101000a900473ffffffffffffffffffffffffffffffffffffffff169050816000806101000a81548173ffffffffffffffffffffffffffffffffffffffff021916908373ffffffffffffffffffffffffffffffffffffffff1602179055508173ffffffffffffffffffffffffffffffffffffffff168173ffffffffffffffffffffffffffffffffffffffff167f8be0079c531659141344cd1fd0a4f28419497f9722a3daafe3b4186f6b6457e060405160405180910390a35050565b8173ffffffffffffffffffffffffffffffffffffffff168373ffffffffffffffffffffffffffffffffffffffff161415611350576040517f08c379a0000000000000000000000000000000000000000000000000000000008152600401611347906127d0565b60405180910390fd5b80600660008573ffffffffffffffffffffffffffffffffffffffff1673ffffffffffffffffffffffffffffffffffffffff16815260200190815260200160002060008473ffffffffffffffffffffffffffffffffffffffff1673ffffffffffffffffffffffffffffffffffffffff16815260200190815260200160002060006101000a81548160ff0219169083151502179055508173ffffffffffffffffffffffffffffffffffffffff168373ffffffffffffffffffffffffffffffffffffffff167f17307eab39ab6107e8899845ad3d59bd9653f200f220920489ca2b5937696c31836040516114419190612713565b60405180910390a3505050565b611459848484610f0b565b61146584848484611839565b6114a4576040517f08c379a000000000000000000000000000000000000000000000000000000000815260040161149b90612750565b60405180910390fd5b50505050565b606060405180602001604052806000815250905090565b60606000821415611509576040518060400160405280600181526020017f30000000000000000000000000000000000000000000000000000000000000008152509050611669565b600082905060005b6000821461153b57808061152490612be2565b915050600a826115349190612a95565b9150611511565b60008167ffffffffffffffff81111561157d577f4e487b7100000000000000000000000000000000000000000000000000000000600052604160045260246000fd5b6040519080825280601f01601f1916602001820160405280156115af5781602001600182028036833780820191505090505b5090505b60008514611662576001826115c89190612ac6565b9150600a856115d79190612c2b565b60306115e39190612a3f565b60f81b81838151811061161f577f4e487b7100000000000000000000000000000000000000000000000000000000600052603260045260246000fd5b60200101907effffffffffffffffffffffffffffffffffffffffffffffffffffffffffffff1916908160001a905350600a8561165b9190612a95565b94506115b3565b8093505050505b919050565b6000806003600084815260200190815260200160002060009054906101000a900473ffffffffffffffffffffffffffffffffffffffff169050600073ffffffffffffffffffffffffffffffffffffffff168173ffffffffffffffffffffffffffffffffffffffff161415611717576040517f08c379a000000000000000000000000000000000000000000000000000000000815260040161170e90612830565b60405180910390fd5b80915050919050565b505050565b816005600083815260200190815260200160002060006101000a81548173ffffffffffffffffffffffffffffffffffffffff021916908373ffffffffffffffffffffffffffffffffffffffff160217905550808273ffffffffffffffffffffffffffffffffffffffff166117988361166e565b73ffffffffffffffffffffffffffffffffffffffff167f8c5be1e5ebec7d5bd14f71427d1e84f3dd0314c0f7b2291e5b200ac8c7c3b92560405160405180910390a45050565b6117e883836119d0565b6117f56000848484611839565b611834576040517f08c379a000000000000000000000000000000000000000000000000000000000815260040161182b90612750565b60405180910390fd5b505050565b600061185a8473ffffffffffffffffffffffffffffffffffffffff16611b9e565b156119c3578373ffffffffffffffffffffffffffffffffffffffff1663150b7a02611883610e25565b8786866040518563ffffffff1660e01b81526004016118a594939291906126c7565b602060405180830381600087803b1580156118bf57600080fd5b505af19250505080156118f057506040513d601f19601f820116820180604052508101906118ed9190611f5d565b60015b611973573d8060008114611920576040519150601f19603f3d011682016040523d82523d6000602084013e611925565b606091505b5060008151141561196b576040517f08c379a000000000000000000000000000000000000000000000000000000000815260040161196290612750565b60405180910390fd5b805181602001fd5b63150b7a0260e01b7bffffffffffffffffffffffffffffffffffffffffffffffffffffffff1916817bffffffffffffffffffffffffffffffffffffffffffffffffffffffff1916149150506119c8565b600190505b949350505050565b600073ffffffffffffffffffffffffffffffffffffffff168273ffffffffffffffffffffffffffffffffffffffff161415611a40576040517f08c379a0000000000000000000000000000000000000000000000000000000008152600401611a3790612870565b60405180910390fd5b611a4981610d42565b15611a89576040517f08c379a0000000000000000000000000000000000000000000000000000000008152600401611a8090612790565b60405180910390fd5b611a9560008383611720565b6001600460008473ffffffffffffffffffffffffffffffffffffffff1673ffffffffffffffffffffffffffffffffffffffff1681526020019081526020016000206000828254611ae59190612a3f565b92505081905550816003600083815260200190815260200160002060006101000a81548173ffffffffffffffffffffffffffffffffffffffff021916908373ffffffffffffffffffffffffffffffffffffffff160217905550808273ffffffffffffffffffffffffffffffffffffffff16600073ffffffffffffffffffffffffffffffffffffffff167fddf252ad1be2c89b69c2b068fc378daa952ba7f163c4a11628f55a4df523b3ef60405160405180910390a45050565b600080823b905060008111915050919050565b828054611bbd90612bb0565b90600052602060002090601f016020900481019282611bdf5760008555611c26565b82601f10611bf857805160ff1916838001178555611c26565b82800160010185558215611c26579182015b82811115611c25578251825591602001919060010190611c0a565b5b509050611c339190611c37565b5090565b5b80821115611c50576000816000905550600101611c38565b5090565b6000611c67611c628461299c565b61296b565b905082815260208101848484011115611c7f57600080fd5b611c8a848285612b6e565b509392505050565b6000611ca5611ca0846129cc565b61296b565b905082815260208101848484011115611cbd57600080fd5b611cc8848285612b6e565b509392505050565b600081359050611cdf81612d29565b92915050565b600081359050611cf481612d40565b92915050565b600081359050611d0981612d57565b92915050565b600081519050611d1e81612d57565b92915050565b600082601f830112611d3557600080fd5b8135611d45848260208601611c54565b91505092915050565b600082601f830112611d5f57600080fd5b8135611d6f848260208601611c92565b91505092915050565b600081359050611d8781612d6e565b92915050565b600060208284031215611d9f57600080fd5b6000611dad84828501611cd0565b91505092915050565b60008060408385031215611dc957600080fd5b6000611dd785828601611cd0565b9250506020611de885828601611cd0565b9150509250929050565b600080600060608486031215611e0757600080fd5b6000611e1586828701611cd0565b9350506020611e2686828701611cd0565b9250506040611e3786828701611d78565b9150509250925092565b60008060008060808587031215611e5757600080fd5b6000611e6587828801611cd0565b9450506020611e7687828801611cd0565b9350506040611e8787828801611d78565b925050606085013567ffffffffffffffff811115611ea457600080fd5b611eb087828801611d24565b91505092959194509250565b60008060408385031215611ecf57600080fd5b6000611edd85828601611cd0565b9250506020611eee85828601611ce5565b9150509250929050565b60008060408385031215611f0b57600080fd5b6000611f1985828601611cd0565b9250506020611f2a85828601611d78565b9150509250929050565b600060208284031215611f4657600080fd5b6000611f5484828501611cfa565b91505092915050565b600060208284031215611f6f57600080fd5b6000611f7d84828501611d0f565b91505092915050565b600060208284031215611f9857600080fd5b600082013567ffffffffffffffff811115611fb257600080fd5b611fbe84828501611d4e565b91505092915050565b600060208284031215611fd957600080fd5b6000611fe784828501611d78565b91505092915050565b611ff981612afa565b82525050565b61200881612b0c565b82525050565b6000612019826129fc565b6120238185612a12565b9350612033818560208601612b7d565b61203c81612d18565b840191505092915050565b600061205282612a07565b61205c8185612a23565b935061206c818560208601612b7d565b61207581612d18565b840191505092915050565b600061208b82612a07565b6120958185612a34565b93506120a5818560208601612b7d565b80840191505092915050565b60006120be603283612a23565b91507f4552433732313a207472616e7366657220746f206e6f6e20455243373231526560008301527f63656976657220696d706c656d656e74657200000000000000000000000000006020830152604082019050919050565b6000612124602683612a23565b91507f4f776e61626c653a206e6577206f776e657220697320746865207a65726f206160008301527f64647265737300000000000000000000000000000000000000000000000000006020830152604082019050919050565b600061218a601c83612a23565b91507f4552433732313a20746f6b656e20616c7265616479206d696e746564000000006000830152602082019050919050565b60006121ca602483612a23565b91507f4552433732313a207472616e7366657220746f20746865207a65726f2061646460008301527f72657373000000000000000000000000000000000000000000000000000000006020830152604082019050919050565b6000612230601983612a23565b91507f4552433732313a20617070726f766520746f2063616c6c6572000000000000006000830152602082019050919050565b6000612270602c83612a23565b91507f4552433732313a206f70657261746f7220717565727920666f72206e6f6e657860008301527f697374656e7420746f6b656e00000000000000000000000000000000000000006020830152604082019050919050565b60006122d6602a83612a23565b91507f4552433732313a2062616c616e636520717565727920666f7220746865207a6560008301527f726f2061646472657373000000000000000000000000000000000000000000006020830152604082019050919050565b600061233c602983612a23565b91507f4552433732313a206f776e657220717565727920666f72206e6f6e657869737460008301527f656e7420746f6b656e00000000000000000000000000000000000000000000006020830152604082019050919050565b60006123a2602e83612a23565b91507f45524337323155524953746f726167653a2055524920736574206f66206e6f6e60008301527f6578697374656e7420746f6b656e0000000000000000000000000000000000006020830152604082019050919050565b6000612408602083612a23565b91507f4552433732313a206d696e7420746f20746865207a65726f20616464726573736000830152602082019050919050565b6000612448603183612a23565b91507f45524337323155524953746f726167653a2055524920717565727920666f722060008301527f6e6f6e6578697374656e7420746f6b656e0000000000000000000000000000006020830152604082019050919050565b60006124ae602c83612a23565b91507f4552433732313a20617070726f76656420717565727920666f72206e6f6e657860008301527f697374656e7420746f6b656e00000000000000000000000000000000000000006020830152604082019050919050565b6000612514602083612a23565b91507f4f776e61626c653a2063616c6c6572206973206e6f7420746865206f776e65726000830152602082019050919050565b6000612554602983612a23565b91507f4552433732313a207472616e73666572206f6620746f6b656e2074686174206960008301527f73206e6f74206f776e00000000000000000000000000000000000000000000006020830152604082019050919050565b60006125ba603183612a23565b91507f4552433732313a207472616e736665722063616c6c6572206973206e6f74206f60008301527f776e6572206e6f7220617070726f7665640000000000000000000000000000006020830152604082019050919050565b6000612620603383612a23565b91507f596f75206e65656420746f206f776e207468697320746f6b656e20696e206f7260008301527f64657220746f20617070726f76652069742120000000000000000000000000006020830152604082019050919050565b61268281612b64565b82525050565b60006126948285612080565b91506126a08284612080565b91508190509392505050565b60006020820190506126c16000830184611ff0565b92915050565b60006080820190506126dc6000830187611ff0565b6126e96020830186611ff0565b6126f66040830185612679565b8181036060830152612708818461200e565b905095945050505050565b60006020820190506127286000830184611fff565b92915050565b600060208201905081810360008301526127488184612047565b905092915050565b60006020820190508181036000830152612769816120b1565b9050919050565b6000602082019050818103600083015261278981612117565b9050919050565b600060208201905081810360008301526127a98161217d565b9050919050565b600060208201905081810360008301526127c9816121bd565b9050919050565b600060208201905081810360008301526127e981612223565b9050919050565b6000602082019050818103600083015261280981612263565b9050919050565b60006020820190508181036000830152612829816122c9565b9050919050565b600060208201905081810360008301526128498161232f565b9050919050565b6000602082019050818103600083015261286981612395565b9050919050565b60006020820190508181036000830152612889816123fb565b9050919050565b600060208201905081810360008301526128a98161243b565b9050919050565b600060208201905081810360008301526128c9816124a1565b9050919050565b600060208201905081810360008301526128e981612507565b9050919050565b6000602082019050818103600083015261290981612547565b9050919050565b60006020820190508181036000830152612929816125ad565b9050919050565b6000602082019050818103600083015261294981612613565b9050919050565b60006020820190506129656000830184612679565b92915050565b6000604051905081810181811067ffffffffffffffff8211171561299257612991612ce9565b5b8060405250919050565b600067ffffffffffffffff8211156129b7576129b6612ce9565b5b601f19601f8301169050602081019050919050565b600067ffffffffffffffff8211156129e7576129e6612ce9565b5b601f19601f8301169050602081019050919050565b600081519050919050565b600081519050919050565b600082825260208201905092915050565b600082825260208201905092915050565b600081905092915050565b6000612a4a82612b64565b9150612a5583612b64565b9250827fffffffffffffffffffffffffffffffffffffffffffffffffffffffffffffffff03821115612a8a57612a89612c5c565b5b828201905092915050565b6000612aa082612b64565b9150612aab83612b64565b925082612abb57612aba612c8b565b5b828204905092915050565b6000612ad182612b64565b9150612adc83612b64565b925082821015612aef57612aee612c5c565b5b828203905092915050565b6000612b0582612b44565b9050919050565b60008115159050919050565b60007fffffffff0000000000000000000000000000000000000000000000000000000082169050919050565b600073ffffffffffffffffffffffffffffffffffffffff82169050919050565b6000819050919050565b82818337600083830152505050565b60005b83811015612b9b578082015181840152602081019050612b80565b83811115612baa576000848401525b50505050565b60006002820490506001821680612bc857607f821691505b60208210811415612bdc57612bdb612cba565b5b50919050565b6000612bed82612b64565b91507fffffffffffffffffffffffffffffffffffffffffffffffffffffffffffffffff821415612c2057612c1f612c5c565b5b600182019050919050565b6000612c3682612b64565b9150612c4183612b64565b925082612c5157612c50612c8b565b5b828206905092915050565b7f4e487b7100000000000000000000000000000000000000000000000000000000600052601160045260246000fd5b7f4e487b7100000000000000000000000000000000000000000000000000000000600052601260045260246000fd5b7f4e487b7100000000000000000000000000000000000000000000000000000000600052602260045260246000fd5b7f4e487b7100000000000000000000000000000000000000000000000000000000600052604160045260246000fd5b6000601f19601f8301169050919050565b612d3281612afa565b8114612d3d57600080fd5b50565b612d4981612b0c565b8114612d5457600080fd5b50565b612d6081612b18565b8114612d6b57600080fd5b50565b612d7781612b64565b8114612d8257600080fd5b5056fea2646970667358221220784cc95ec0c209078fbb3019bd64467fc368e6432ba8327f2c5838502e30d02d64736f6c63430008000033",
  "linkReferences": {},
  "deployedLinkReferences": {}
}