{
  "_format": "hh-sol-artifact-1",
  "contractName": "CreatorNFT",
  "sourceName": "contracts/CreatorNFT.sol",
  "abi": [
    {
      "inputs": [],
      "stateMutability": "nonpayable",
      "type": "constructor"
    },
    {
      "anonymous": false,
      "inputs": [
        {
          "indexed": true,
          "internalType": "address",
          "name": "owner",
          "type": "address"
        },
        {
          "indexed": true,
          "internalType": "address",
          "name": "approved",
          "type": "address"
        },
        {
          "indexed": true,
          "internalType": "uint256",
          "name": "tokenId",
          "type": "uint256"
        }
      ],
      "name": "Approval",
      "type": "event"
    },
    {
      "anonymous": false,
      "inputs": [
        {
          "indexed": true,
          "internalType": "address",
          "name": "owner",
          "type": "address"
        },
        {
          "indexed": true,
          "internalType": "address",
          "name": "operator",
          "type": "address"
        },
        {
          "indexed": false,
          "internalType": "bool",
          "name": "approved",
          "type": "bool"
        }
      ],
      "name": "ApprovalForAll",
      "type": "event"
    },
    {
      "anonymous": false,
      "inputs": [
        {
          "indexed": true,
          "internalType": "address",
          "name": "previousOwner",
          "type": "address"
        },
        {
          "indexed": true,
          "internalType": "address",
          "name": "newOwner",
          "type": "address"
        }
      ],
      "name": "OwnershipTransferred",
      "type": "event"
    },
    {
      "anonymous": false,
      "inputs": [
        {
          "indexed": true,
          "internalType": "address",
          "name": "from",
          "type": "address"
        },
        {
          "indexed": true,
          "internalType": "address",
          "name": "to",
          "type": "address"
        },
        {
          "indexed": true,
          "internalType": "uint256",
          "name": "tokenId",
          "type": "uint256"
        }
      ],
      "name": "Transfer",
      "type": "event"
    },
    {
      "inputs": [
        {
          "internalType": "address",
          "name": "to",
          "type": "address"
        },
        {
          "internalType": "uint256",
          "name": "tokenId",
          "type": "uint256"
        }
      ],
      "name": "approve",
      "outputs": [],
      "stateMutability": "nonpayable",
      "type": "function"
    },
    {
      "inputs": [
        {
          "internalType": "address",
          "name": "owner",
          "type": "address"
        }
      ],
      "name": "balanceOf",
      "outputs": [
        {
          "internalType": "uint256",
          "name": "",
          "type": "uint256"
        }
      ],
      "stateMutability": "view",
      "type": "function"
    },
    {
      "inputs": [
        {
          "internalType": "uint256",
          "name": "tokenId",
          "type": "uint256"
        }
      ],
      "name": "getApproved",
      "outputs": [
        {
          "internalType": "address",
          "name": "",
          "type": "address"
        }
      ],
      "stateMutability": "view",
      "type": "function"
    },
    {
      "inputs": [
        {
          "internalType": "address",
          "name": "owner",
          "type": "address"
        },
        {
          "internalType": "address",
          "name": "operator",
          "type": "address"
        }
      ],
      "name": "isApprovedForAll",
      "outputs": [
        {
          "internalType": "bool",
          "name": "",
          "type": "bool"
        }
      ],
      "stateMutability": "view",
      "type": "function"
    },
    {
      "inputs": [
        {
          "internalType": "string",
          "name": "_tokenURI",
          "type": "string"
        }
      ],
      "name": "mintToken",
      "outputs": [
        {
          "internalType": "uint256",
          "name": "",
          "type": "uint256"
        }
      ],
      "stateMutability": "nonpayable",
      "type": "function"
    },
    {
      "inputs": [],
      "name": "name",
      "outputs": [
        {
          "internalType": "string",
          "name": "",
          "type": "string"
        }
      ],
      "stateMutability": "view",
      "type": "function"
    },
    {
      "inputs": [],
      "name": "owner",
      "outputs": [
        {
          "internalType": "address",
          "name": "",
          "type": "address"
        }
      ],
      "stateMutability": "view",
      "type": "function"
    },
    {
      "inputs": [
        {
          "internalType": "uint256",
          "name": "_tokenId",
          "type": "uint256"
        }
      ],
      "name": "ownerOf",
      "outputs": [
        {
          "internalType": "address",
          "name": "",
          "type": "address"
        }
      ],
      "stateMutability": "view",
      "type": "function"
    },
    {
      "inputs": [],
      "name": "renounceOwnership",
      "outputs": [],
      "stateMutability": "nonpayable",
      "type": "function"
    },
    {
      "inputs": [
        {
          "internalType": "address",
          "name": "from",
          "type": "address"
        },
        {
          "internalType": "address",
          "name": "to",
          "type": "address"
        },
        {
          "internalType": "uint256",
          "name": "tokenId",
          "type": "uint256"
        }
      ],
      "name": "safeTransferFrom",
      "outputs": [],
      "stateMutability": "nonpayable",
      "type": "function"
    },
    {
      "inputs": [
        {
          "internalType": "address",
          "name": "from",
          "type": "address"
        },
        {
          "internalType": "address",
          "name": "to",
          "type": "address"
        },
        {
          "internalType": "uint256",
          "name": "tokenId",
          "type": "uint256"
        },
        {
          "internalType": "bytes",
          "name": "_data",
          "type": "bytes"
        }
      ],
      "name": "safeTransferFrom",
      "outputs": [],
      "stateMutability": "nonpayable",
      "type": "function"
    },
    {
      "inputs": [
        {
          "internalType": "address",
          "name": "operator",
          "type": "address"
        },
        {
          "internalType": "bool",
          "name": "approved",
          "type": "bool"
        }
      ],
      "name": "setApprovalForAll",
      "outputs": [],
      "stateMutability": "nonpayable",
      "type": "function"
    },
    {
      "inputs": [
        {
          "internalType": "bytes4",
          "name": "interfaceId",
          "type": "bytes4"
        }
      ],
      "name": "supportsInterface",
      "outputs": [
        {
          "internalType": "bool",
          "name": "",
          "type": "bool"
        }
      ],
      "stateMutability": "view",
      "type": "function"
    },
    {
      "inputs": [],
      "name": "symbol",
      "outputs": [
        {
          "internalType": "string",
          "name": "",
          "type": "string"
        }
      ],
      "stateMutability": "view",
      "type": "function"
    },
    {
      "inputs": [],
      "name": "tokenName",
      "outputs": [
        {
          "internalType": "string",
          "name": "",
          "type": "string"
        }
      ],
      "stateMutability": "view",
      "type": "function"
    },
    {
      "inputs": [],
      "name": "tokenSymbol",
      "outputs": [
        {
          "internalType": "string",
          "name": "",
          "type": "string"
        }
      ],
      "stateMutability": "view",
      "type": "function"
    },
    {
      "inputs": [
        {
          "internalType": "uint256",
          "name": "tokenId",
          "type": "uint256"
        }
      ],
      "name": "tokenURI",
      "outputs": [
        {
          "internalType": "string",
          "name": "",
          "type": "string"
        }
      ],
      "stateMutability": "view",
      "type": "function"
    },
    {
      "inputs": [
        {
          "internalType": "address",
          "name": "to",
          "type": "address"
        },
        {
          "internalType": "uint256",
          "name": "_tokenId",
          "type": "uint256"
        }
      ],
      "name": "transfer",
      "outputs": [],
      "stateMutability": "nonpayable",
      "type": "function"
    },
    {
      "inputs": [
        {
          "internalType": "address",
          "name": "from",
          "type": "address"
        },
        {
          "internalType": "address",
          "name": "to",
          "type": "address"
        },
        {
          "internalType": "uint256",
          "name": "tokenId",
          "type": "uint256"
        }
      ],
      "name": "transferFrom",
      "outputs": [],
      "stateMutability": "nonpayable",
      "type": "function"
    },
    {
      "inputs": [
        {
          "internalType": "address",
          "name": "newOwner",
          "type": "address"
        }
      ],
      "name": "transferOwnership",
      "outputs": [],
      "stateMutability": "nonpayable",
      "type": "function"
    }
  ],
  "bytecode": "0x60806040523480156200001157600080fd5b506040518060400160405280600c81526020017f43726561746f72546f6b656e00000000000000000000000000000000000000008152506040518060400160405280600281526020017f43540000000000000000000000000000000000000000000000000000000000008152506200009e62000092620000d860201b60201c565b620000e060201b60201c565b8160019080519060200190620000b6929190620001a4565b508060029080519060200190620000cf929190620001a4565b505050620002b9565b600033905090565b60008060009054906101000a900473ffffffffffffffffffffffffffffffffffffffff169050816000806101000a81548173ffffffffffffffffffffffffffffffffffffffff021916908373ffffffffffffffffffffffffffffffffffffffff1602179055508173ffffffffffffffffffffffffffffffffffffffff168173ffffffffffffffffffffffffffffffffffffffff167f8be0079c531659141344cd1fd0a4f28419497f9722a3daafe3b4186f6b6457e060405160405180910390a35050565b828054620001b29062000254565b90600052602060002090601f016020900481019282620001d6576000855562000222565b82601f10620001f157805160ff191683800117855562000222565b8280016001018555821562000222579182015b828111156200022157825182559160200191906001019062000204565b5b50905062000231919062000235565b5090565b5b808211156200025057600081600090555060010162000236565b5090565b600060028204905060018216806200026d57607f821691505b602082108114156200028457620002836200028a565b5b50919050565b7f4e487b7100000000000000000000000000000000000000000000000000000000600052602260045260246000fd5b61322a80620002c96000396000f3fe608060405234801561001057600080fd5b506004361061012c5760003560e01c8063715018a6116100ad578063a9059cbb11610071578063a9059cbb14610331578063b88d4fde1461034d578063c87b56dd14610369578063e985e9c514610399578063f2fde38b146103c95761012c565b8063715018a6146102b15780637b61c320146102bb5780638da5cb5b146102d957806395d89b41146102f7578063a22cb465146103155761012c565b806333eba49a116100f457806333eba49a146101e757806342842e0e146102175780636352211e146102335780636c02a9311461026357806370a08231146102815761012c565b806301ffc9a71461013157806306fdde0314610161578063081812fc1461017f578063095ea7b3146101af57806323b872dd146101cb575b600080fd5b61014b60048036038101906101469190612230565b6103e5565b6040516101589190612adb565b60405180910390f35b6101696104c7565b6040516101769190612af6565b60405180910390f35b610199600480360381019061019491906122c3565b610559565b6040516101a69190612a74565b60405180910390f35b6101c960048036038101906101c491906121f4565b6105de565b005b6101e560048036038101906101e091906120ee565b6106f6565b005b61020160048036038101906101fc9190612282565b610756565b60405161020e9190612dbf565b60405180910390f35b610231600480360381019061022c91906120ee565b610814565b005b61024d600480360381019061024891906122c3565b610834565b60405161025a9190612a74565b60405180910390f35b61026b610871565b6040516102789190612af6565b60405180910390f35b61029b60048036038101906102969190612089565b6108aa565b6040516102a89190612dbf565b60405180910390f35b6102b9610962565b005b6102c36109ea565b6040516102d09190612af6565b60405180910390f35b6102e1610a23565b6040516102ee9190612a74565b60405180910390f35b6102ff610a4c565b60405161030c9190612af6565b60405180910390f35b61032f600480360381019061032a91906121b8565b610ade565b005b61034b600480360381019061034691906121f4565b610af4565b005b6103676004803603810190610362919061213d565b610b03565b005b610383600480360381019061037e91906122c3565b610b65565b6040516103909190612af6565b60405180910390f35b6103b360048036038101906103ae91906120b2565b610cb7565b6040516103c09190612adb565b60405180910390f35b6103e360048036038101906103de9190612089565b610d4b565b005b60007f80ac58cd000000000000000000000000000000000000000000000000000000007bffffffffffffffffffffffffffffffffffffffffffffffffffffffff1916827bffffffffffffffffffffffffffffffffffffffffffffffffffffffff191614806104b057507f5b5e139f000000000000000000000000000000000000000000000000000000007bffffffffffffffffffffffffffffffffffffffffffffffffffffffff1916827bffffffffffffffffffffffffffffffffffffffffffffffffffffffff1916145b806104c057506104bf82610e43565b5b9050919050565b6060600180546104d69061301f565b80601f01602080910402602001604051908101604052809291908181526020018280546105029061301f565b801561054f5780601f106105245761010080835404028352916020019161054f565b820191906000526020600020905b81548152906001019060200180831161053257829003601f168201915b5050505050905090565b600061056482610ead565b6105a3576040517f08c379a000000000000000000000000000000000000000000000000000000000815260040161059a90612cff565b60405180910390fd5b6005600083815260200190815260200160002060009054906101000a900473ffffffffffffffffffffffffffffffffffffffff169050919050565b60006105e982610f19565b90508073ffffffffffffffffffffffffffffffffffffffff168373ffffffffffffffffffffffffffffffffffffffff16141561065a576040517f08c379a000000000000000000000000000000000000000000000000000000000815260040161065190612d7f565b60405180910390fd5b8073ffffffffffffffffffffffffffffffffffffffff16610679610fcb565b73ffffffffffffffffffffffffffffffffffffffff1614806106a857506106a7816106a2610fcb565b610cb7565b5b6106e7576040517f08c379a00000000000000000000000000000000000000000000000000000000081526004016106de90612c3f565b60405180910390fd5b6106f18383610fd3565b505050565b610707610701610fcb565b8261108c565b610746576040517f08c379a000000000000000000000000000000000000000000000000000000000815260040161073d90612d9f565b60405180910390fd5b61075183838361116a565b505050565b600061076260086113c6565b6107a16040518060400160405280600a81526020017f546f6b656e205552492000000000000000000000000000000000000000000000815250836113dc565b6107e96040518060400160405280600981526020017f546f6b656e2049442000000000000000000000000000000000000000000000008152506107e46008611478565b611486565b60006107f56008611478565b90506108013382611522565b61080b8184611540565b80915050919050565b61082f83838360405180602001604052806000815250610b03565b505050565b60006009600083815260200190815260200160002060009054906101000a900473ffffffffffffffffffffffffffffffffffffffff169050919050565b6040518060400160405280600c81526020017f43726561746f72546f6b656e000000000000000000000000000000000000000081525081565b60008073ffffffffffffffffffffffffffffffffffffffff168273ffffffffffffffffffffffffffffffffffffffff16141561091b576040517f08c379a000000000000000000000000000000000000000000000000000000000815260040161091290612c5f565b60405180910390fd5b600460008373ffffffffffffffffffffffffffffffffffffffff1673ffffffffffffffffffffffffffffffffffffffff168152602001908152602001600020549050919050565b61096a610fcb565b73ffffffffffffffffffffffffffffffffffffffff16610988610a23565b73ffffffffffffffffffffffffffffffffffffffff16146109de576040517f08c379a00000000000000000000000000000000000000000000000000000000081526004016109d590612d1f565b60405180910390fd5b6109e860006115b4565b565b6040518060400160405280600281526020017f435400000000000000000000000000000000000000000000000000000000000081525081565b60008060009054906101000a900473ffffffffffffffffffffffffffffffffffffffff16905090565b606060028054610a5b9061301f565b80601f0160208091040260200160405190810160405280929190818152602001828054610a879061301f565b8015610ad45780601f10610aa957610100808354040283529160200191610ad4565b820191906000526020600020905b815481529060010190602001808311610ab757829003601f168201915b5050505050905090565b610af0610ae9610fcb565b8383611678565b5050565b610aff3383836106f6565b5050565b610b14610b0e610fcb565b8361108c565b610b53576040517f08c379a0000000000000000000000000000000000000000000000000000000008152600401610b4a90612d9f565b60405180910390fd5b610b5f848484846117e5565b50505050565b6060610b7082610ead565b610baf576040517f08c379a0000000000000000000000000000000000000000000000000000000008152600401610ba690612cdf565b60405180910390fd5b6000600760008481526020019081526020016000208054610bcf9061301f565b80601f0160208091040260200160405190810160405280929190818152602001828054610bfb9061301f565b8015610c485780601f10610c1d57610100808354040283529160200191610c48565b820191906000526020600020905b815481529060010190602001808311610c2b57829003601f168201915b505050505090506000610c59611841565b9050600081511415610c6f578192505050610cb2565b600082511115610ca4578082604051602001610c8c929190612a50565b60405160208183030381529060405292505050610cb2565b610cad84611858565b925050505b919050565b6000600660008473ffffffffffffffffffffffffffffffffffffffff1673ffffffffffffffffffffffffffffffffffffffff16815260200190815260200160002060008373ffffffffffffffffffffffffffffffffffffffff1673ffffffffffffffffffffffffffffffffffffffff16815260200190815260200160002060009054906101000a900460ff16905092915050565b610d53610fcb565b73ffffffffffffffffffffffffffffffffffffffff16610d71610a23565b73ffffffffffffffffffffffffffffffffffffffff1614610dc7576040517f08c379a0000000000000000000000000000000000000000000000000000000008152600401610dbe90612d1f565b60405180910390fd5b600073ffffffffffffffffffffffffffffffffffffffff168173ffffffffffffffffffffffffffffffffffffffff161415610e37576040517f08c379a0000000000000000000000000000000000000000000000000000000008152600401610e2e90612b9f565b60405180910390fd5b610e40816115b4565b50565b60007f01ffc9a7000000000000000000000000000000000000000000000000000000007bffffffffffffffffffffffffffffffffffffffffffffffffffffffff1916827bffffffffffffffffffffffffffffffffffffffffffffffffffffffff1916149050919050565b60008073ffffffffffffffffffffffffffffffffffffffff166003600084815260200190815260200160002060009054906101000a900473ffffffffffffffffffffffffffffffffffffffff1673ffffffffffffffffffffffffffffffffffffffff1614159050919050565b6000806003600084815260200190815260200160002060009054906101000a900473ffffffffffffffffffffffffffffffffffffffff169050600073ffffffffffffffffffffffffffffffffffffffff168173ffffffffffffffffffffffffffffffffffffffff161415610fc2576040517f08c379a0000000000000000000000000000000000000000000000000000000008152600401610fb990612c7f565b60405180910390fd5b80915050919050565b600033905090565b816005600083815260200190815260200160002060006101000a81548173ffffffffffffffffffffffffffffffffffffffff021916908373ffffffffffffffffffffffffffffffffffffffff160217905550808273ffffffffffffffffffffffffffffffffffffffff1661104683610f19565b73ffffffffffffffffffffffffffffffffffffffff167f8c5be1e5ebec7d5bd14f71427d1e84f3dd0314c0f7b2291e5b200ac8c7c3b92560405160405180910390a45050565b600061109782610ead565b6110d6576040517f08c379a00000000000000000000000000000000000000000000000000000000081526004016110cd90612c1f565b60405180910390fd5b60006110e183610f19565b90508073ffffffffffffffffffffffffffffffffffffffff168473ffffffffffffffffffffffffffffffffffffffff16148061115057508373ffffffffffffffffffffffffffffffffffffffff1661113884610559565b73ffffffffffffffffffffffffffffffffffffffff16145b8061116157506111608185610cb7565b5b91505092915050565b8273ffffffffffffffffffffffffffffffffffffffff1661118a82610f19565b73ffffffffffffffffffffffffffffffffffffffff16146111e0576040517f08c379a00000000000000000000000000000000000000000000000000000000081526004016111d790612d3f565b60405180910390fd5b600073ffffffffffffffffffffffffffffffffffffffff168273ffffffffffffffffffffffffffffffffffffffff161415611250576040517f08c379a000000000000000000000000000000000000000000000000000000000815260040161124790612bdf565b60405180910390fd5b61125b8383836118ff565b611266600082610fd3565b6001600460008573ffffffffffffffffffffffffffffffffffffffff1673ffffffffffffffffffffffffffffffffffffffff16815260200190815260200160002060008282546112b69190612f35565b925050819055506001600460008473ffffffffffffffffffffffffffffffffffffffff1673ffffffffffffffffffffffffffffffffffffffff168152602001908152602001600020600082825461130d9190612eae565b92505081905550816003600083815260200190815260200160002060006101000a81548173ffffffffffffffffffffffffffffffffffffffff021916908373ffffffffffffffffffffffffffffffffffffffff160217905550808273ffffffffffffffffffffffffffffffffffffffff168473ffffffffffffffffffffffffffffffffffffffff167fddf252ad1be2c89b69c2b068fc378daa952ba7f163c4a11628f55a4df523b3ef60405160405180910390a4505050565b6001816000016000828254019250508190555050565b61147482826040516024016113f2929190612b18565b6040516020818303038152906040527f4b5c4277000000000000000000000000000000000000000000000000000000007bffffffffffffffffffffffffffffffffffffffffffffffffffffffff19166020820180517bffffffffffffffffffffffffffffffffffffffffffffffffffffffff8381831617835250505050611904565b5050565b600081600001549050919050565b61151e828260405160240161149c929190612b4f565b6040516020818303038152906040527f9710a9d0000000000000000000000000000000000000000000000000000000007bffffffffffffffffffffffffffffffffffffffffffffffffffffffff19166020820180517bffffffffffffffffffffffffffffffffffffffffffffffffffffffff8381831617835250505050611904565b5050565b61153c82826040518060200160405280600081525061192d565b5050565b61154982610ead565b611588576040517f08c379a000000000000000000000000000000000000000000000000000000000815260040161157f90612c9f565b60405180910390fd5b806007600084815260200190815260200160002090805190602001906115af929190611ead565b505050565b60008060009054906101000a900473ffffffffffffffffffffffffffffffffffffffff169050816000806101000a81548173ffffffffffffffffffffffffffffffffffffffff021916908373ffffffffffffffffffffffffffffffffffffffff1602179055508173ffffffffffffffffffffffffffffffffffffffff168173ffffffffffffffffffffffffffffffffffffffff167f8be0079c531659141344cd1fd0a4f28419497f9722a3daafe3b4186f6b6457e060405160405180910390a35050565b8173ffffffffffffffffffffffffffffffffffffffff168373ffffffffffffffffffffffffffffffffffffffff1614156116e7576040517f08c379a00000000000000000000000000000000000000000000000000000000081526004016116de90612bff565b60405180910390fd5b80600660008573ffffffffffffffffffffffffffffffffffffffff1673ffffffffffffffffffffffffffffffffffffffff16815260200190815260200160002060008473ffffffffffffffffffffffffffffffffffffffff1673ffffffffffffffffffffffffffffffffffffffff16815260200190815260200160002060006101000a81548160ff0219169083151502179055508173ffffffffffffffffffffffffffffffffffffffff168373ffffffffffffffffffffffffffffffffffffffff167f17307eab39ab6107e8899845ad3d59bd9653f200f220920489ca2b5937696c31836040516117d89190612adb565b60405180910390a3505050565b6117f084848461116a565b6117fc84848484611988565b61183b576040517f08c379a000000000000000000000000000000000000000000000000000000000815260040161183290612b7f565b60405180910390fd5b50505050565b606060405180602001604052806000815250905090565b606061186382610ead565b6118a2576040517f08c379a000000000000000000000000000000000000000000000000000000000815260040161189990612d5f565b60405180910390fd5b60006118ac611841565b905060008151116118cc57604051806020016040528060008152506118f7565b806118d684611b1f565b6040516020016118e7929190612a50565b6040516020818303038152906040525b915050919050565b505050565b60008151905060006a636f6e736f6c652e6c6f679050602083016000808483855afa5050505050565b6119378383611ccc565b6119446000848484611988565b611983576040517f08c379a000000000000000000000000000000000000000000000000000000000815260040161197a90612b7f565b60405180910390fd5b505050565b60006119a98473ffffffffffffffffffffffffffffffffffffffff16611e9a565b15611b12578373ffffffffffffffffffffffffffffffffffffffff1663150b7a026119d2610fcb565b8786866040518563ffffffff1660e01b81526004016119f49493929190612a8f565b602060405180830381600087803b158015611a0e57600080fd5b505af1925050508015611a3f57506040513d601f19601f82011682018060405250810190611a3c9190612259565b60015b611ac2573d8060008114611a6f576040519150601f19603f3d011682016040523d82523d6000602084013e611a74565b606091505b50600081511415611aba576040517f08c379a0000000000000000000000000000000000000000000000000000000008152600401611ab190612b7f565b60405180910390fd5b805181602001fd5b63150b7a0260e01b7bffffffffffffffffffffffffffffffffffffffffffffffffffffffff1916817bffffffffffffffffffffffffffffffffffffffffffffffffffffffff191614915050611b17565b600190505b949350505050565b60606000821415611b67576040518060400160405280600181526020017f30000000000000000000000000000000000000000000000000000000000000008152509050611cc7565b600082905060005b60008214611b99578080611b8290613051565b915050600a82611b929190612f04565b9150611b6f565b60008167ffffffffffffffff811115611bdb577f4e487b7100000000000000000000000000000000000000000000000000000000600052604160045260246000fd5b6040519080825280601f01601f191660200182016040528015611c0d5781602001600182028036833780820191505090505b5090505b60008514611cc057600182611c269190612f35565b9150600a85611c35919061309a565b6030611c419190612eae565b60f81b818381518110611c7d577f4e487b7100000000000000000000000000000000000000000000000000000000600052603260045260246000fd5b60200101907effffffffffffffffffffffffffffffffffffffffffffffffffffffffffffff1916908160001a905350600a85611cb99190612f04565b9450611c11565b8093505050505b919050565b600073ffffffffffffffffffffffffffffffffffffffff168273ffffffffffffffffffffffffffffffffffffffff161415611d3c576040517f08c379a0000000000000000000000000000000000000000000000000000000008152600401611d3390612cbf565b60405180910390fd5b611d4581610ead565b15611d85576040517f08c379a0000000000000000000000000000000000000000000000000000000008152600401611d7c90612bbf565b60405180910390fd5b611d91600083836118ff565b6001600460008473ffffffffffffffffffffffffffffffffffffffff1673ffffffffffffffffffffffffffffffffffffffff1681526020019081526020016000206000828254611de19190612eae565b92505081905550816003600083815260200190815260200160002060006101000a81548173ffffffffffffffffffffffffffffffffffffffff021916908373ffffffffffffffffffffffffffffffffffffffff160217905550808273ffffffffffffffffffffffffffffffffffffffff16600073ffffffffffffffffffffffffffffffffffffffff167fddf252ad1be2c89b69c2b068fc378daa952ba7f163c4a11628f55a4df523b3ef60405160405180910390a45050565b600080823b905060008111915050919050565b828054611eb99061301f565b90600052602060002090601f016020900481019282611edb5760008555611f22565b82601f10611ef457805160ff1916838001178555611f22565b82800160010185558215611f22579182015b82811115611f21578251825591602001919060010190611f06565b5b509050611f2f9190611f33565b5090565b5b80821115611f4c576000816000905550600101611f34565b5090565b6000611f63611f5e84612e0b565b612dda565b905082815260208101848484011115611f7b57600080fd5b611f86848285612fdd565b509392505050565b6000611fa1611f9c84612e3b565b612dda565b905082815260208101848484011115611fb957600080fd5b611fc4848285612fdd565b509392505050565b600081359050611fdb81613198565b92915050565b600081359050611ff0816131af565b92915050565b600081359050612005816131c6565b92915050565b60008151905061201a816131c6565b92915050565b600082601f83011261203157600080fd5b8135612041848260208601611f50565b91505092915050565b600082601f83011261205b57600080fd5b813561206b848260208601611f8e565b91505092915050565b600081359050612083816131dd565b92915050565b60006020828403121561209b57600080fd5b60006120a984828501611fcc565b91505092915050565b600080604083850312156120c557600080fd5b60006120d385828601611fcc565b92505060206120e485828601611fcc565b9150509250929050565b60008060006060848603121561210357600080fd5b600061211186828701611fcc565b935050602061212286828701611fcc565b925050604061213386828701612074565b9150509250925092565b6000806000806080858703121561215357600080fd5b600061216187828801611fcc565b945050602061217287828801611fcc565b935050604061218387828801612074565b925050606085013567ffffffffffffffff8111156121a057600080fd5b6121ac87828801612020565b91505092959194509250565b600080604083850312156121cb57600080fd5b60006121d985828601611fcc565b92505060206121ea85828601611fe1565b9150509250929050565b6000806040838503121561220757600080fd5b600061221585828601611fcc565b925050602061222685828601612074565b9150509250929050565b60006020828403121561224257600080fd5b600061225084828501611ff6565b91505092915050565b60006020828403121561226b57600080fd5b60006122798482850161200b565b91505092915050565b60006020828403121561229457600080fd5b600082013567ffffffffffffffff8111156122ae57600080fd5b6122ba8482850161204a565b91505092915050565b6000602082840312156122d557600080fd5b60006122e384828501612074565b91505092915050565b6122f581612f69565b82525050565b61230481612f7b565b82525050565b600061231582612e6b565b61231f8185612e81565b935061232f818560208601612fec565b61233881613187565b840191505092915050565b600061234e82612e76565b6123588185612e92565b9350612368818560208601612fec565b61237181613187565b840191505092915050565b600061238782612e76565b6123918185612ea3565b93506123a1818560208601612fec565b80840191505092915050565b60006123ba603283612e92565b91507f4552433732313a207472616e7366657220746f206e6f6e20455243373231526560008301527f63656976657220696d706c656d656e74657200000000000000000000000000006020830152604082019050919050565b6000612420602683612e92565b91507f4f776e61626c653a206e6577206f776e657220697320746865207a65726f206160008301527f64647265737300000000000000000000000000000000000000000000000000006020830152604082019050919050565b6000612486601c83612e92565b91507f4552433732313a20746f6b656e20616c7265616479206d696e746564000000006000830152602082019050919050565b60006124c6602483612e92565b91507f4552433732313a207472616e7366657220746f20746865207a65726f2061646460008301527f72657373000000000000000000000000000000000000000000000000000000006020830152604082019050919050565b600061252c601983612e92565b91507f4552433732313a20617070726f766520746f2063616c6c6572000000000000006000830152602082019050919050565b600061256c602c83612e92565b91507f4552433732313a206f70657261746f7220717565727920666f72206e6f6e657860008301527f697374656e7420746f6b656e00000000000000000000000000000000000000006020830152604082019050919050565b60006125d2603883612e92565b91507f4552433732313a20617070726f76652063616c6c6572206973206e6f74206f7760008301527f6e6572206e6f7220617070726f76656420666f7220616c6c00000000000000006020830152604082019050919050565b6000612638602a83612e92565b91507f4552433732313a2062616c616e636520717565727920666f7220746865207a6560008301527f726f2061646472657373000000000000000000000000000000000000000000006020830152604082019050919050565b600061269e602983612e92565b91507f4552433732313a206f776e657220717565727920666f72206e6f6e657869737460008301527f656e7420746f6b656e00000000000000000000000000000000000000000000006020830152604082019050919050565b6000612704602e83612e92565b91507f45524337323155524953746f726167653a2055524920736574206f66206e6f6e60008301527f6578697374656e7420746f6b656e0000000000000000000000000000000000006020830152604082019050919050565b600061276a602083612e92565b91507f4552433732313a206d696e7420746f20746865207a65726f20616464726573736000830152602082019050919050565b60006127aa603183612e92565b91507f45524337323155524953746f726167653a2055524920717565727920666f722060008301527f6e6f6e6578697374656e7420746f6b656e0000000000000000000000000000006020830152604082019050919050565b6000612810602c83612e92565b91507f4552433732313a20617070726f76656420717565727920666f72206e6f6e657860008301527f697374656e7420746f6b656e00000000000000000000000000000000000000006020830152604082019050919050565b6000612876602083612e92565b91507f4f776e61626c653a2063616c6c6572206973206e6f7420746865206f776e65726000830152602082019050919050565b60006128b6602983612e92565b91507f4552433732313a207472616e73666572206f6620746f6b656e2074686174206960008301527f73206e6f74206f776e00000000000000000000000000000000000000000000006020830152604082019050919050565b600061291c602f83612e92565b91507f4552433732314d657461646174613a2055524920717565727920666f72206e6f60008301527f6e6578697374656e7420746f6b656e00000000000000000000000000000000006020830152604082019050919050565b6000612982602183612e92565b91507f4552433732313a20617070726f76616c20746f2063757272656e74206f776e6560008301527f72000000000000000000000000000000000000000000000000000000000000006020830152604082019050919050565b60006129e8603183612e92565b91507f4552433732313a207472616e736665722063616c6c6572206973206e6f74206f60008301527f776e6572206e6f7220617070726f7665640000000000000000000000000000006020830152604082019050919050565b612a4a81612fd3565b82525050565b6000612a5c828561237c565b9150612a68828461237c565b91508190509392505050565b6000602082019050612a8960008301846122ec565b92915050565b6000608082019050612aa460008301876122ec565b612ab160208301866122ec565b612abe6040830185612a41565b8181036060830152612ad0818461230a565b905095945050505050565b6000602082019050612af060008301846122fb565b92915050565b60006020820190508181036000830152612b108184612343565b905092915050565b60006040820190508181036000830152612b328185612343565b90508181036020830152612b468184612343565b90509392505050565b60006040820190508181036000830152612b698185612343565b9050612b786020830184612a41565b9392505050565b60006020820190508181036000830152612b98816123ad565b9050919050565b60006020820190508181036000830152612bb881612413565b9050919050565b60006020820190508181036000830152612bd881612479565b9050919050565b60006020820190508181036000830152612bf8816124b9565b9050919050565b60006020820190508181036000830152612c188161251f565b9050919050565b60006020820190508181036000830152612c388161255f565b9050919050565b60006020820190508181036000830152612c58816125c5565b9050919050565b60006020820190508181036000830152612c788161262b565b9050919050565b60006020820190508181036000830152612c9881612691565b9050919050565b60006020820190508181036000830152612cb8816126f7565b9050919050565b60006020820190508181036000830152612cd88161275d565b9050919050565b60006020820190508181036000830152612cf88161279d565b9050919050565b60006020820190508181036000830152612d1881612803565b9050919050565b60006020820190508181036000830152612d3881612869565b9050919050565b60006020820190508181036000830152612d58816128a9565b9050919050565b60006020820190508181036000830152612d788161290f565b9050919050565b60006020820190508181036000830152612d9881612975565b9050919050565b60006020820190508181036000830152612db8816129db565b9050919050565b6000602082019050612dd46000830184612a41565b92915050565b6000604051905081810181811067ffffffffffffffff82111715612e0157612e00613158565b5b8060405250919050565b600067ffffffffffffffff821115612e2657612e25613158565b5b601f19601f8301169050602081019050919050565b600067ffffffffffffffff821115612e5657612e55613158565b5b601f19601f8301169050602081019050919050565b600081519050919050565b600081519050919050565b600082825260208201905092915050565b600082825260208201905092915050565b600081905092915050565b6000612eb982612fd3565b9150612ec483612fd3565b9250827fffffffffffffffffffffffffffffffffffffffffffffffffffffffffffffffff03821115612ef957612ef86130cb565b5b828201905092915050565b6000612f0f82612fd3565b9150612f1a83612fd3565b925082612f2a57612f296130fa565b5b828204905092915050565b6000612f4082612fd3565b9150612f4b83612fd3565b925082821015612f5e57612f5d6130cb565b5b828203905092915050565b6000612f7482612fb3565b9050919050565b60008115159050919050565b60007fffffffff0000000000000000000000000000000000000000000000000000000082169050919050565b600073ffffffffffffffffffffffffffffffffffffffff82169050919050565b6000819050919050565b82818337600083830152505050565b60005b8381101561300a578082015181840152602081019050612fef565b83811115613019576000848401525b50505050565b6000600282049050600182168061303757607f821691505b6020821081141561304b5761304a613129565b5b50919050565b600061305c82612fd3565b91507fffffffffffffffffffffffffffffffffffffffffffffffffffffffffffffffff82141561308f5761308e6130cb565b5b600182019050919050565b60006130a582612fd3565b91506130b083612fd3565b9250826130c0576130bf6130fa565b5b828206905092915050565b7f4e487b7100000000000000000000000000000000000000000000000000000000600052601160045260246000fd5b7f4e487b7100000000000000000000000000000000000000000000000000000000600052601260045260246000fd5b7f4e487b7100000000000000000000000000000000000000000000000000000000600052602260045260246000fd5b7f4e487b7100000000000000000000000000000000000000000000000000000000600052604160045260246000fd5b6000601f19601f8301169050919050565b6131a181612f69565b81146131ac57600080fd5b50565b6131b881612f7b565b81146131c357600080fd5b50565b6131cf81612f87565b81146131da57600080fd5b50565b6131e681612fd3565b81146131f157600080fd5b5056fea26469706673582212203a1f60eaaa1c9a527bb56f107ed7d6a6ac9bf475e777e1ef79e29f7369fe5b1c64736f6c63430008000033",
  "linkReferences": {},
  "deployedLinkReferences": {}
}