{
  "_format": "hh-sol-artifact-1",
  "contractName": "RewardNFT",
  "sourceName": "contracts/RewardNFT.sol",
  "abi": [
    {
      "inputs": [],
      "stateMutability": "nonpayable",
      "type": "constructor"
    },
    {
      "anonymous": false,
      "inputs": [
        {
          "indexed": true,
          "internalType": "address",
          "name": "owner",
          "type": "address"
        },
        {
          "indexed": true,
          "internalType": "address",
          "name": "approved",
          "type": "address"
        },
        {
          "indexed": true,
          "internalType": "uint256",
          "name": "tokenId",
          "type": "uint256"
        }
      ],
      "name": "Approval",
      "type": "event"
    },
    {
      "anonymous": false,
      "inputs": [
        {
          "indexed": true,
          "internalType": "address",
          "name": "owner",
          "type": "address"
        },
        {
          "indexed": true,
          "internalType": "address",
          "name": "operator",
          "type": "address"
        },
        {
          "indexed": false,
          "internalType": "bool",
          "name": "approved",
          "type": "bool"
        }
      ],
      "name": "ApprovalForAll",
      "type": "event"
    },
    {
      "anonymous": false,
      "inputs": [
        {
          "indexed": true,
          "internalType": "address",
          "name": "previousOwner",
          "type": "address"
        },
        {
          "indexed": true,
          "internalType": "address",
          "name": "newOwner",
          "type": "address"
        }
      ],
      "name": "OwnershipTransferred",
      "type": "event"
    },
    {
      "anonymous": false,
      "inputs": [
        {
          "indexed": true,
          "internalType": "address",
          "name": "from",
          "type": "address"
        },
        {
          "indexed": true,
          "internalType": "address",
          "name": "to",
          "type": "address"
        },
        {
          "indexed": true,
          "internalType": "uint256",
          "name": "tokenId",
          "type": "uint256"
        }
      ],
      "name": "Transfer",
      "type": "event"
    },
    {
      "inputs": [
        {
          "internalType": "address",
          "name": "to",
          "type": "address"
        },
        {
          "internalType": "uint256",
          "name": "tokenId",
          "type": "uint256"
        }
      ],
      "name": "approve",
      "outputs": [],
      "stateMutability": "nonpayable",
      "type": "function"
    },
    {
      "inputs": [
        {
          "internalType": "address",
          "name": "owner",
          "type": "address"
        }
      ],
      "name": "balanceOf",
      "outputs": [
        {
          "internalType": "uint256",
          "name": "",
          "type": "uint256"
        }
      ],
      "stateMutability": "view",
      "type": "function"
    },
    {
      "inputs": [
        {
          "internalType": "uint256",
          "name": "tokenId",
          "type": "uint256"
        }
      ],
      "name": "getApproved",
      "outputs": [
        {
          "internalType": "address",
          "name": "",
          "type": "address"
        }
      ],
      "stateMutability": "view",
      "type": "function"
    },
    {
      "inputs": [
        {
          "internalType": "address",
          "name": "_user",
          "type": "address"
        }
      ],
      "name": "getTokenURI",
      "outputs": [
        {
          "internalType": "string",
          "name": "",
          "type": "string"
        }
      ],
      "stateMutability": "view",
      "type": "function"
    },
    {
      "inputs": [
        {
          "internalType": "address",
          "name": "owner",
          "type": "address"
        },
        {
          "internalType": "address",
          "name": "operator",
          "type": "address"
        }
      ],
      "name": "isApprovedForAll",
      "outputs": [
        {
          "internalType": "bool",
          "name": "",
          "type": "bool"
        }
      ],
      "stateMutability": "view",
      "type": "function"
    },
    {
      "inputs": [
        {
          "internalType": "string",
          "name": "_tokenURI",
          "type": "string"
        }
      ],
      "name": "mintToken",
      "outputs": [
        {
          "internalType": "uint256",
          "name": "",
          "type": "uint256"
        }
      ],
      "stateMutability": "nonpayable",
      "type": "function"
    },
    {
      "inputs": [],
      "name": "name",
      "outputs": [
        {
          "internalType": "string",
          "name": "",
          "type": "string"
        }
      ],
      "stateMutability": "view",
      "type": "function"
    },
    {
      "inputs": [],
      "name": "owner",
      "outputs": [
        {
          "internalType": "address",
          "name": "",
          "type": "address"
        }
      ],
      "stateMutability": "view",
      "type": "function"
    },
    {
      "inputs": [
        {
          "internalType": "uint256",
          "name": "tokenId",
          "type": "uint256"
        }
      ],
      "name": "ownerOf",
      "outputs": [
        {
          "internalType": "address",
          "name": "",
          "type": "address"
        }
      ],
      "stateMutability": "view",
      "type": "function"
    },
    {
      "inputs": [],
      "name": "renounceOwnership",
      "outputs": [],
      "stateMutability": "nonpayable",
      "type": "function"
    },
    {
      "inputs": [
        {
          "internalType": "address",
          "name": "from",
          "type": "address"
        },
        {
          "internalType": "address",
          "name": "to",
          "type": "address"
        },
        {
          "internalType": "uint256",
          "name": "tokenId",
          "type": "uint256"
        }
      ],
      "name": "safeTransferFrom",
      "outputs": [],
      "stateMutability": "nonpayable",
      "type": "function"
    },
    {
      "inputs": [
        {
          "internalType": "address",
          "name": "from",
          "type": "address"
        },
        {
          "internalType": "address",
          "name": "to",
          "type": "address"
        },
        {
          "internalType": "uint256",
          "name": "tokenId",
          "type": "uint256"
        },
        {
          "internalType": "bytes",
          "name": "_data",
          "type": "bytes"
        }
      ],
      "name": "safeTransferFrom",
      "outputs": [],
      "stateMutability": "nonpayable",
      "type": "function"
    },
    {
      "inputs": [
        {
          "internalType": "address",
          "name": "operator",
          "type": "address"
        },
        {
          "internalType": "bool",
          "name": "approved",
          "type": "bool"
        }
      ],
      "name": "setApprovalForAll",
      "outputs": [],
      "stateMutability": "nonpayable",
      "type": "function"
    },
    {
      "inputs": [
        {
          "internalType": "bytes4",
          "name": "interfaceId",
          "type": "bytes4"
        }
      ],
      "name": "supportsInterface",
      "outputs": [
        {
          "internalType": "bool",
          "name": "",
          "type": "bool"
        }
      ],
      "stateMutability": "view",
      "type": "function"
    },
    {
      "inputs": [],
      "name": "symbol",
      "outputs": [
        {
          "internalType": "string",
          "name": "",
          "type": "string"
        }
      ],
      "stateMutability": "view",
      "type": "function"
    },
    {
      "inputs": [],
      "name": "tokenName",
      "outputs": [
        {
          "internalType": "string",
          "name": "",
          "type": "string"
        }
      ],
      "stateMutability": "view",
      "type": "function"
    },
    {
      "inputs": [],
      "name": "tokenSymbol",
      "outputs": [
        {
          "internalType": "string",
          "name": "",
          "type": "string"
        }
      ],
      "stateMutability": "view",
      "type": "function"
    },
    {
      "inputs": [
        {
          "internalType": "uint256",
          "name": "tokenId",
          "type": "uint256"
        }
      ],
      "name": "tokenURI",
      "outputs": [
        {
          "internalType": "string",
          "name": "",
          "type": "string"
        }
      ],
      "stateMutability": "view",
      "type": "function"
    },
    {
      "inputs": [
        {
          "internalType": "address",
          "name": "to",
          "type": "address"
        },
        {
          "internalType": "uint256",
          "name": "_tokenId",
          "type": "uint256"
        }
      ],
      "name": "transfer",
      "outputs": [],
      "stateMutability": "nonpayable",
      "type": "function"
    },
    {
      "inputs": [
        {
          "internalType": "address",
          "name": "from",
          "type": "address"
        },
        {
          "internalType": "address",
          "name": "to",
          "type": "address"
        },
        {
          "internalType": "uint256",
          "name": "tokenId",
          "type": "uint256"
        }
      ],
      "name": "transferFrom",
      "outputs": [],
      "stateMutability": "nonpayable",
      "type": "function"
    },
    {
      "inputs": [
        {
          "internalType": "address",
          "name": "newOwner",
          "type": "address"
        }
      ],
      "name": "transferOwnership",
      "outputs": [],
      "stateMutability": "nonpayable",
      "type": "function"
    }
  ],
  "bytecode": "0x60806040523480156200001157600080fd5b506040518060400160405280601381526020017f416666696e697479526577617264546f6b656e000000000000000000000000008152506040518060400160405280600381526020017f4152540000000000000000000000000000000000000000000000000000000000815250816000908051906020019062000096929190620001a6565b508060019080519060200190620000af929190620001a6565b505050620000d2620000c6620000d860201b60201c565b620000e060201b60201c565b620002bb565b600033905090565b6000600760009054906101000a900473ffffffffffffffffffffffffffffffffffffffff16905081600760006101000a81548173ffffffffffffffffffffffffffffffffffffffff021916908373ffffffffffffffffffffffffffffffffffffffff1602179055508173ffffffffffffffffffffffffffffffffffffffff168173ffffffffffffffffffffffffffffffffffffffff167f8be0079c531659141344cd1fd0a4f28419497f9722a3daafe3b4186f6b6457e060405160405180910390a35050565b828054620001b49062000256565b90600052602060002090601f016020900481019282620001d8576000855562000224565b82601f10620001f357805160ff191683800117855562000224565b8280016001018555821562000224579182015b828111156200022357825182559160200191906001019062000206565b5b50905062000233919062000237565b5090565b5b808211156200025257600081600090555060010162000238565b5090565b600060028204905060018216806200026f57607f821691505b602082108114156200028657620002856200028c565b5b50919050565b7f4e487b7100000000000000000000000000000000000000000000000000000000600052602260045260246000fd5b61335080620002cb6000396000f3fe608060405234801561001057600080fd5b50600436106101375760003560e01c806370a08231116100b8578063a22cb4651161007c578063a22cb46514610350578063a9059cbb1461036c578063b88d4fde14610388578063c87b56dd146103a4578063e985e9c5146103d4578063f2fde38b1461040457610137565b806370a08231146102bc578063715018a6146102ec5780637b61c320146102f65780638da5cb5b1461031457806395d89b411461033257610137565b806333eba49a116100ff57806333eba49a146101f257806342842e0e1461022257806361c028e71461023e5780636352211e1461026e5780636c02a9311461029e57610137565b806301ffc9a71461013c57806306fdde031461016c578063081812fc1461018a578063095ea7b3146101ba57806323b872dd146101d6575b600080fd5b61015660048036038101906101519190612356565b610420565b6040516101639190612c01565b60405180910390f35b610174610502565b6040516101819190612c1c565b60405180910390f35b6101a4600480360381019061019f91906123e9565b610594565b6040516101b19190612b9a565b60405180910390f35b6101d460048036038101906101cf919061231a565b610619565b005b6101f060048036038101906101eb9190612214565b610731565b005b61020c600480360381019061020791906123a8565b610791565b6040516102199190612ee5565b60405180910390f35b61023c60048036038101906102379190612214565b6108a3565b005b610258600480360381019061025391906121af565b6108c3565b6040516102659190612c1c565b60405180910390f35b610288600480360381019061028391906123e9565b610994565b6040516102959190612b9a565b60405180910390f35b6102a6610a46565b6040516102b39190612c1c565b60405180910390f35b6102d660048036038101906102d191906121af565b610a7f565b6040516102e39190612ee5565b60405180910390f35b6102f4610b37565b005b6102fe610bbf565b60405161030b9190612c1c565b60405180910390f35b61031c610bf8565b6040516103299190612b9a565b60405180910390f35b61033a610c22565b6040516103479190612c1c565b60405180910390f35b61036a600480360381019061036591906122de565b610cb4565b005b6103866004803603810190610381919061231a565b610cca565b005b6103a2600480360381019061039d9190612263565b610cd9565b005b6103be60048036038101906103b991906123e9565b610d3b565b6040516103cb9190612c1c565b60405180910390f35b6103ee60048036038101906103e991906121d8565b610e8d565b6040516103fb9190612c01565b60405180910390f35b61041e600480360381019061041991906121af565b610f21565b005b60007f80ac58cd000000000000000000000000000000000000000000000000000000007bffffffffffffffffffffffffffffffffffffffffffffffffffffffff1916827bffffffffffffffffffffffffffffffffffffffffffffffffffffffff191614806104eb57507f5b5e139f000000000000000000000000000000000000000000000000000000007bffffffffffffffffffffffffffffffffffffffffffffffffffffffff1916827bffffffffffffffffffffffffffffffffffffffffffffffffffffffff1916145b806104fb57506104fa82611019565b5b9050919050565b60606000805461051190613145565b80601f016020809104026020016040519081016040528092919081815260200182805461053d90613145565b801561058a5780601f1061055f5761010080835404028352916020019161058a565b820191906000526020600020905b81548152906001019060200180831161056d57829003601f168201915b5050505050905090565b600061059f82611083565b6105de576040517f08c379a00000000000000000000000000000000000000000000000000000000081526004016105d590612e25565b60405180910390fd5b6004600083815260200190815260200160002060009054906101000a900473ffffffffffffffffffffffffffffffffffffffff169050919050565b600061062482610994565b90508073ffffffffffffffffffffffffffffffffffffffff168373ffffffffffffffffffffffffffffffffffffffff161415610695576040517f08c379a000000000000000000000000000000000000000000000000000000000815260040161068c90612ea5565b60405180910390fd5b8073ffffffffffffffffffffffffffffffffffffffff166106b46110ef565b73ffffffffffffffffffffffffffffffffffffffff1614806106e357506106e2816106dd6110ef565b610e8d565b5b610722576040517f08c379a000000000000000000000000000000000000000000000000000000000815260040161071990612d65565b60405180910390fd5b61072c83836110f7565b505050565b61074261073c6110ef565b826111b0565b610781576040517f08c379a000000000000000000000000000000000000000000000000000000000815260040161077890612ec5565b60405180910390fd5b61078c83838361128e565b505050565b600061079d60086114ea565b6107dc6040518060400160405280600a81526020017f546f6b656e20555249200000000000000000000000000000000000000000000081525083611500565b6108246040518060400160405280600981526020017f546f6b656e20494420000000000000000000000000000000000000000000000081525061081f600861159c565b6115aa565b6000610830600861159c565b905061083c3382611646565b6108468184611664565b82600a60003373ffffffffffffffffffffffffffffffffffffffff1673ffffffffffffffffffffffffffffffffffffffff1681526020019081526020016000209080519060200190610899929190611fd3565b5080915050919050565b6108be83838360405180602001604052806000815250610cd9565b505050565b6060600a60008373ffffffffffffffffffffffffffffffffffffffff1673ffffffffffffffffffffffffffffffffffffffff168152602001908152602001600020805461090f90613145565b80601f016020809104026020016040519081016040528092919081815260200182805461093b90613145565b80156109885780601f1061095d57610100808354040283529160200191610988565b820191906000526020600020905b81548152906001019060200180831161096b57829003601f168201915b50505050509050919050565b6000806002600084815260200190815260200160002060009054906101000a900473ffffffffffffffffffffffffffffffffffffffff169050600073ffffffffffffffffffffffffffffffffffffffff168173ffffffffffffffffffffffffffffffffffffffff161415610a3d576040517f08c379a0000000000000000000000000000000000000000000000000000000008152600401610a3490612da5565b60405180910390fd5b80915050919050565b6040518060400160405280601381526020017f416666696e697479526577617264546f6b656e0000000000000000000000000081525081565b60008073ffffffffffffffffffffffffffffffffffffffff168273ffffffffffffffffffffffffffffffffffffffff161415610af0576040517f08c379a0000000000000000000000000000000000000000000000000000000008152600401610ae790612d85565b60405180910390fd5b600360008373ffffffffffffffffffffffffffffffffffffffff1673ffffffffffffffffffffffffffffffffffffffff168152602001908152602001600020549050919050565b610b3f6110ef565b73ffffffffffffffffffffffffffffffffffffffff16610b5d610bf8565b73ffffffffffffffffffffffffffffffffffffffff1614610bb3576040517f08c379a0000000000000000000000000000000000000000000000000000000008152600401610baa90612e45565b60405180910390fd5b610bbd60006116d8565b565b6040518060400160405280600381526020017f415254000000000000000000000000000000000000000000000000000000000081525081565b6000600760009054906101000a900473ffffffffffffffffffffffffffffffffffffffff16905090565b606060018054610c3190613145565b80601f0160208091040260200160405190810160405280929190818152602001828054610c5d90613145565b8015610caa5780601f10610c7f57610100808354040283529160200191610caa565b820191906000526020600020905b815481529060010190602001808311610c8d57829003601f168201915b5050505050905090565b610cc6610cbf6110ef565b838361179e565b5050565b610cd5338383610731565b5050565b610cea610ce46110ef565b836111b0565b610d29576040517f08c379a0000000000000000000000000000000000000000000000000000000008152600401610d2090612ec5565b60405180910390fd5b610d358484848461190b565b50505050565b6060610d4682611083565b610d85576040517f08c379a0000000000000000000000000000000000000000000000000000000008152600401610d7c90612e05565b60405180910390fd5b6000600660008481526020019081526020016000208054610da590613145565b80601f0160208091040260200160405190810160405280929190818152602001828054610dd190613145565b8015610e1e5780601f10610df357610100808354040283529160200191610e1e565b820191906000526020600020905b815481529060010190602001808311610e0157829003601f168201915b505050505090506000610e2f611967565b9050600081511415610e45578192505050610e88565b600082511115610e7a578082604051602001610e62929190612b76565b60405160208183030381529060405292505050610e88565b610e838461197e565b925050505b919050565b6000600560008473ffffffffffffffffffffffffffffffffffffffff1673ffffffffffffffffffffffffffffffffffffffff16815260200190815260200160002060008373ffffffffffffffffffffffffffffffffffffffff1673ffffffffffffffffffffffffffffffffffffffff16815260200190815260200160002060009054906101000a900460ff16905092915050565b610f296110ef565b73ffffffffffffffffffffffffffffffffffffffff16610f47610bf8565b73ffffffffffffffffffffffffffffffffffffffff1614610f9d576040517f08c379a0000000000000000000000000000000000000000000000000000000008152600401610f9490612e45565b60405180910390fd5b600073ffffffffffffffffffffffffffffffffffffffff168173ffffffffffffffffffffffffffffffffffffffff16141561100d576040517f08c379a000000000000000000000000000000000000000000000000000000000815260040161100490612cc5565b60405180910390fd5b611016816116d8565b50565b60007f01ffc9a7000000000000000000000000000000000000000000000000000000007bffffffffffffffffffffffffffffffffffffffffffffffffffffffff1916827bffffffffffffffffffffffffffffffffffffffffffffffffffffffff1916149050919050565b60008073ffffffffffffffffffffffffffffffffffffffff166002600084815260200190815260200160002060009054906101000a900473ffffffffffffffffffffffffffffffffffffffff1673ffffffffffffffffffffffffffffffffffffffff1614159050919050565b600033905090565b816004600083815260200190815260200160002060006101000a81548173ffffffffffffffffffffffffffffffffffffffff021916908373ffffffffffffffffffffffffffffffffffffffff160217905550808273ffffffffffffffffffffffffffffffffffffffff1661116a83610994565b73ffffffffffffffffffffffffffffffffffffffff167f8c5be1e5ebec7d5bd14f71427d1e84f3dd0314c0f7b2291e5b200ac8c7c3b92560405160405180910390a45050565b60006111bb82611083565b6111fa576040517f08c379a00000000000000000000000000000000000000000000000000000000081526004016111f190612d45565b60405180910390fd5b600061120583610994565b90508073ffffffffffffffffffffffffffffffffffffffff168473ffffffffffffffffffffffffffffffffffffffff16148061127457508373ffffffffffffffffffffffffffffffffffffffff1661125c84610594565b73ffffffffffffffffffffffffffffffffffffffff16145b8061128557506112848185610e8d565b5b91505092915050565b8273ffffffffffffffffffffffffffffffffffffffff166112ae82610994565b73ffffffffffffffffffffffffffffffffffffffff1614611304576040517f08c379a00000000000000000000000000000000000000000000000000000000081526004016112fb90612e65565b60405180910390fd5b600073ffffffffffffffffffffffffffffffffffffffff168273ffffffffffffffffffffffffffffffffffffffff161415611374576040517f08c379a000000000000000000000000000000000000000000000000000000000815260040161136b90612d05565b60405180910390fd5b61137f838383611a25565b61138a6000826110f7565b6001600360008573ffffffffffffffffffffffffffffffffffffffff1673ffffffffffffffffffffffffffffffffffffffff16815260200190815260200160002060008282546113da919061305b565b925050819055506001600360008473ffffffffffffffffffffffffffffffffffffffff1673ffffffffffffffffffffffffffffffffffffffff16815260200190815260200160002060008282546114319190612fd4565b92505081905550816002600083815260200190815260200160002060006101000a81548173ffffffffffffffffffffffffffffffffffffffff021916908373ffffffffffffffffffffffffffffffffffffffff160217905550808273ffffffffffffffffffffffffffffffffffffffff168473ffffffffffffffffffffffffffffffffffffffff167fddf252ad1be2c89b69c2b068fc378daa952ba7f163c4a11628f55a4df523b3ef60405160405180910390a4505050565b6001816000016000828254019250508190555050565b6115988282604051602401611516929190612c3e565b6040516020818303038152906040527f4b5c4277000000000000000000000000000000000000000000000000000000007bffffffffffffffffffffffffffffffffffffffffffffffffffffffff19166020820180517bffffffffffffffffffffffffffffffffffffffffffffffffffffffff8381831617835250505050611a2a565b5050565b600081600001549050919050565b61164282826040516024016115c0929190612c75565b6040516020818303038152906040527f9710a9d0000000000000000000000000000000000000000000000000000000007bffffffffffffffffffffffffffffffffffffffffffffffffffffffff19166020820180517bffffffffffffffffffffffffffffffffffffffffffffffffffffffff8381831617835250505050611a2a565b5050565b611660828260405180602001604052806000815250611a53565b5050565b61166d82611083565b6116ac576040517f08c379a00000000000000000000000000000000000000000000000000000000081526004016116a390612dc5565b60405180910390fd5b806006600084815260200190815260200160002090805190602001906116d3929190611fd3565b505050565b6000600760009054906101000a900473ffffffffffffffffffffffffffffffffffffffff16905081600760006101000a81548173ffffffffffffffffffffffffffffffffffffffff021916908373ffffffffffffffffffffffffffffffffffffffff1602179055508173ffffffffffffffffffffffffffffffffffffffff168173ffffffffffffffffffffffffffffffffffffffff167f8be0079c531659141344cd1fd0a4f28419497f9722a3daafe3b4186f6b6457e060405160405180910390a35050565b8173ffffffffffffffffffffffffffffffffffffffff168373ffffffffffffffffffffffffffffffffffffffff16141561180d576040517f08c379a000000000000000000000000000000000000000000000000000000000815260040161180490612d25565b60405180910390fd5b80600560008573ffffffffffffffffffffffffffffffffffffffff1673ffffffffffffffffffffffffffffffffffffffff16815260200190815260200160002060008473ffffffffffffffffffffffffffffffffffffffff1673ffffffffffffffffffffffffffffffffffffffff16815260200190815260200160002060006101000a81548160ff0219169083151502179055508173ffffffffffffffffffffffffffffffffffffffff168373ffffffffffffffffffffffffffffffffffffffff167f17307eab39ab6107e8899845ad3d59bd9653f200f220920489ca2b5937696c31836040516118fe9190612c01565b60405180910390a3505050565b61191684848461128e565b61192284848484611aae565b611961576040517f08c379a000000000000000000000000000000000000000000000000000000000815260040161195890612ca5565b60405180910390fd5b50505050565b606060405180602001604052806000815250905090565b606061198982611083565b6119c8576040517f08c379a00000000000000000000000000000000000000000000000000000000081526004016119bf90612e85565b60405180910390fd5b60006119d2611967565b905060008151116119f25760405180602001604052806000815250611a1d565b806119fc84611c45565b604051602001611a0d929190612b76565b6040516020818303038152906040525b915050919050565b505050565b60008151905060006a636f6e736f6c652e6c6f679050602083016000808483855afa5050505050565b611a5d8383611df2565b611a6a6000848484611aae565b611aa9576040517f08c379a0000000000000000000000000000000000000000000000000000000008152600401611aa090612ca5565b60405180910390fd5b505050565b6000611acf8473ffffffffffffffffffffffffffffffffffffffff16611fc0565b15611c38578373ffffffffffffffffffffffffffffffffffffffff1663150b7a02611af86110ef565b8786866040518563ffffffff1660e01b8152600401611b1a9493929190612bb5565b602060405180830381600087803b158015611b3457600080fd5b505af1925050508015611b6557506040513d601f19601f82011682018060405250810190611b62919061237f565b60015b611be8573d8060008114611b95576040519150601f19603f3d011682016040523d82523d6000602084013e611b9a565b606091505b50600081511415611be0576040517f08c379a0000000000000000000000000000000000000000000000000000000008152600401611bd790612ca5565b60405180910390fd5b805181602001fd5b63150b7a0260e01b7bffffffffffffffffffffffffffffffffffffffffffffffffffffffff1916817bffffffffffffffffffffffffffffffffffffffffffffffffffffffff191614915050611c3d565b600190505b949350505050565b60606000821415611c8d576040518060400160405280600181526020017f30000000000000000000000000000000000000000000000000000000000000008152509050611ded565b600082905060005b60008214611cbf578080611ca890613177565b915050600a82611cb8919061302a565b9150611c95565b60008167ffffffffffffffff811115611d01577f4e487b7100000000000000000000000000000000000000000000000000000000600052604160045260246000fd5b6040519080825280601f01601f191660200182016040528015611d335781602001600182028036833780820191505090505b5090505b60008514611de657600182611d4c919061305b565b9150600a85611d5b91906131c0565b6030611d679190612fd4565b60f81b818381518110611da3577f4e487b7100000000000000000000000000000000000000000000000000000000600052603260045260246000fd5b60200101907effffffffffffffffffffffffffffffffffffffffffffffffffffffffffffff1916908160001a905350600a85611ddf919061302a565b9450611d37565b8093505050505b919050565b600073ffffffffffffffffffffffffffffffffffffffff168273ffffffffffffffffffffffffffffffffffffffff161415611e62576040517f08c379a0000000000000000000000000000000000000000000000000000000008152600401611e5990612de5565b60405180910390fd5b611e6b81611083565b15611eab576040517f08c379a0000000000000000000000000000000000000000000000000000000008152600401611ea290612ce5565b60405180910390fd5b611eb760008383611a25565b6001600360008473ffffffffffffffffffffffffffffffffffffffff1673ffffffffffffffffffffffffffffffffffffffff1681526020019081526020016000206000828254611f079190612fd4565b92505081905550816002600083815260200190815260200160002060006101000a81548173ffffffffffffffffffffffffffffffffffffffff021916908373ffffffffffffffffffffffffffffffffffffffff160217905550808273ffffffffffffffffffffffffffffffffffffffff16600073ffffffffffffffffffffffffffffffffffffffff167fddf252ad1be2c89b69c2b068fc378daa952ba7f163c4a11628f55a4df523b3ef60405160405180910390a45050565b600080823b905060008111915050919050565b828054611fdf90613145565b90600052602060002090601f0160209004810192826120015760008555612048565b82601f1061201a57805160ff1916838001178555612048565b82800160010185558215612048579182015b8281111561204757825182559160200191906001019061202c565b5b5090506120559190612059565b5090565b5b8082111561207257600081600090555060010161205a565b5090565b600061208961208484612f31565b612f00565b9050828152602081018484840111156120a157600080fd5b6120ac848285613103565b509392505050565b60006120c76120c284612f61565b612f00565b9050828152602081018484840111156120df57600080fd5b6120ea848285613103565b509392505050565b600081359050612101816132be565b92915050565b600081359050612116816132d5565b92915050565b60008135905061212b816132ec565b92915050565b600081519050612140816132ec565b92915050565b600082601f83011261215757600080fd5b8135612167848260208601612076565b91505092915050565b600082601f83011261218157600080fd5b81356121918482602086016120b4565b91505092915050565b6000813590506121a981613303565b92915050565b6000602082840312156121c157600080fd5b60006121cf848285016120f2565b91505092915050565b600080604083850312156121eb57600080fd5b60006121f9858286016120f2565b925050602061220a858286016120f2565b9150509250929050565b60008060006060848603121561222957600080fd5b6000612237868287016120f2565b9350506020612248868287016120f2565b92505060406122598682870161219a565b9150509250925092565b6000806000806080858703121561227957600080fd5b6000612287878288016120f2565b9450506020612298878288016120f2565b93505060406122a98782880161219a565b925050606085013567ffffffffffffffff8111156122c657600080fd5b6122d287828801612146565b91505092959194509250565b600080604083850312156122f157600080fd5b60006122ff858286016120f2565b925050602061231085828601612107565b9150509250929050565b6000806040838503121561232d57600080fd5b600061233b858286016120f2565b925050602061234c8582860161219a565b9150509250929050565b60006020828403121561236857600080fd5b60006123768482850161211c565b91505092915050565b60006020828403121561239157600080fd5b600061239f84828501612131565b91505092915050565b6000602082840312156123ba57600080fd5b600082013567ffffffffffffffff8111156123d457600080fd5b6123e084828501612170565b91505092915050565b6000602082840312156123fb57600080fd5b60006124098482850161219a565b91505092915050565b61241b8161308f565b82525050565b61242a816130a1565b82525050565b600061243b82612f91565b6124458185612fa7565b9350612455818560208601613112565b61245e816132ad565b840191505092915050565b600061247482612f9c565b61247e8185612fb8565b935061248e818560208601613112565b612497816132ad565b840191505092915050565b60006124ad82612f9c565b6124b78185612fc9565b93506124c7818560208601613112565b80840191505092915050565b60006124e0603283612fb8565b91507f4552433732313a207472616e7366657220746f206e6f6e20455243373231526560008301527f63656976657220696d706c656d656e74657200000000000000000000000000006020830152604082019050919050565b6000612546602683612fb8565b91507f4f776e61626c653a206e6577206f776e657220697320746865207a65726f206160008301527f64647265737300000000000000000000000000000000000000000000000000006020830152604082019050919050565b60006125ac601c83612fb8565b91507f4552433732313a20746f6b656e20616c7265616479206d696e746564000000006000830152602082019050919050565b60006125ec602483612fb8565b91507f4552433732313a207472616e7366657220746f20746865207a65726f2061646460008301527f72657373000000000000000000000000000000000000000000000000000000006020830152604082019050919050565b6000612652601983612fb8565b91507f4552433732313a20617070726f766520746f2063616c6c6572000000000000006000830152602082019050919050565b6000612692602c83612fb8565b91507f4552433732313a206f70657261746f7220717565727920666f72206e6f6e657860008301527f697374656e7420746f6b656e00000000000000000000000000000000000000006020830152604082019050919050565b60006126f8603883612fb8565b91507f4552433732313a20617070726f76652063616c6c6572206973206e6f74206f7760008301527f6e6572206e6f7220617070726f76656420666f7220616c6c00000000000000006020830152604082019050919050565b600061275e602a83612fb8565b91507f4552433732313a2062616c616e636520717565727920666f7220746865207a6560008301527f726f2061646472657373000000000000000000000000000000000000000000006020830152604082019050919050565b60006127c4602983612fb8565b91507f4552433732313a206f776e657220717565727920666f72206e6f6e657869737460008301527f656e7420746f6b656e00000000000000000000000000000000000000000000006020830152604082019050919050565b600061282a602e83612fb8565b91507f45524337323155524953746f726167653a2055524920736574206f66206e6f6e60008301527f6578697374656e7420746f6b656e0000000000000000000000000000000000006020830152604082019050919050565b6000612890602083612fb8565b91507f4552433732313a206d696e7420746f20746865207a65726f20616464726573736000830152602082019050919050565b60006128d0603183612fb8565b91507f45524337323155524953746f726167653a2055524920717565727920666f722060008301527f6e6f6e6578697374656e7420746f6b656e0000000000000000000000000000006020830152604082019050919050565b6000612936602c83612fb8565b91507f4552433732313a20617070726f76656420717565727920666f72206e6f6e657860008301527f697374656e7420746f6b656e00000000000000000000000000000000000000006020830152604082019050919050565b600061299c602083612fb8565b91507f4f776e61626c653a2063616c6c6572206973206e6f7420746865206f776e65726000830152602082019050919050565b60006129dc602983612fb8565b91507f4552433732313a207472616e73666572206f6620746f6b656e2074686174206960008301527f73206e6f74206f776e00000000000000000000000000000000000000000000006020830152604082019050919050565b6000612a42602f83612fb8565b91507f4552433732314d657461646174613a2055524920717565727920666f72206e6f60008301527f6e6578697374656e7420746f6b656e00000000000000000000000000000000006020830152604082019050919050565b6000612aa8602183612fb8565b91507f4552433732313a20617070726f76616c20746f2063757272656e74206f776e6560008301527f72000000000000000000000000000000000000000000000000000000000000006020830152604082019050919050565b6000612b0e603183612fb8565b91507f4552433732313a207472616e736665722063616c6c6572206973206e6f74206f60008301527f776e6572206e6f7220617070726f7665640000000000000000000000000000006020830152604082019050919050565b612b70816130f9565b82525050565b6000612b8282856124a2565b9150612b8e82846124a2565b91508190509392505050565b6000602082019050612baf6000830184612412565b92915050565b6000608082019050612bca6000830187612412565b612bd76020830186612412565b612be46040830185612b67565b8181036060830152612bf68184612430565b905095945050505050565b6000602082019050612c166000830184612421565b92915050565b60006020820190508181036000830152612c368184612469565b905092915050565b60006040820190508181036000830152612c588185612469565b90508181036020830152612c6c8184612469565b90509392505050565b60006040820190508181036000830152612c8f8185612469565b9050612c9e6020830184612b67565b9392505050565b60006020820190508181036000830152612cbe816124d3565b9050919050565b60006020820190508181036000830152612cde81612539565b9050919050565b60006020820190508181036000830152612cfe8161259f565b9050919050565b60006020820190508181036000830152612d1e816125df565b9050919050565b60006020820190508181036000830152612d3e81612645565b9050919050565b60006020820190508181036000830152612d5e81612685565b9050919050565b60006020820190508181036000830152612d7e816126eb565b9050919050565b60006020820190508181036000830152612d9e81612751565b9050919050565b60006020820190508181036000830152612dbe816127b7565b9050919050565b60006020820190508181036000830152612dde8161281d565b9050919050565b60006020820190508181036000830152612dfe81612883565b9050919050565b60006020820190508181036000830152612e1e816128c3565b9050919050565b60006020820190508181036000830152612e3e81612929565b9050919050565b60006020820190508181036000830152612e5e8161298f565b9050919050565b60006020820190508181036000830152612e7e816129cf565b9050919050565b60006020820190508181036000830152612e9e81612a35565b9050919050565b60006020820190508181036000830152612ebe81612a9b565b9050919050565b60006020820190508181036000830152612ede81612b01565b9050919050565b6000602082019050612efa6000830184612b67565b92915050565b6000604051905081810181811067ffffffffffffffff82111715612f2757612f2661327e565b5b8060405250919050565b600067ffffffffffffffff821115612f4c57612f4b61327e565b5b601f19601f8301169050602081019050919050565b600067ffffffffffffffff821115612f7c57612f7b61327e565b5b601f19601f8301169050602081019050919050565b600081519050919050565b600081519050919050565b600082825260208201905092915050565b600082825260208201905092915050565b600081905092915050565b6000612fdf826130f9565b9150612fea836130f9565b9250827fffffffffffffffffffffffffffffffffffffffffffffffffffffffffffffffff0382111561301f5761301e6131f1565b5b828201905092915050565b6000613035826130f9565b9150613040836130f9565b9250826130505761304f613220565b5b828204905092915050565b6000613066826130f9565b9150613071836130f9565b925082821015613084576130836131f1565b5b828203905092915050565b600061309a826130d9565b9050919050565b60008115159050919050565b60007fffffffff0000000000000000000000000000000000000000000000000000000082169050919050565b600073ffffffffffffffffffffffffffffffffffffffff82169050919050565b6000819050919050565b82818337600083830152505050565b60005b83811015613130578082015181840152602081019050613115565b8381111561313f576000848401525b50505050565b6000600282049050600182168061315d57607f821691505b602082108114156131715761317061324f565b5b50919050565b6000613182826130f9565b91507fffffffffffffffffffffffffffffffffffffffffffffffffffffffffffffffff8214156131b5576131b46131f1565b5b600182019050919050565b60006131cb826130f9565b91506131d6836130f9565b9250826131e6576131e5613220565b5b828206905092915050565b7f4e487b7100000000000000000000000000000000000000000000000000000000600052601160045260246000fd5b7f4e487b7100000000000000000000000000000000000000000000000000000000600052601260045260246000fd5b7f4e487b7100000000000000000000000000000000000000000000000000000000600052602260045260246000fd5b7f4e487b7100000000000000000000000000000000000000000000000000000000600052604160045260246000fd5b6000601f19601f8301169050919050565b6132c78161308f565b81146132d257600080fd5b50565b6132de816130a1565b81146132e957600080fd5b50565b6132f5816130ad565b811461330057600080fd5b50565b61330c816130f9565b811461331757600080fd5b5056fea26469706673582212206415e525bee34a9ee2d19a77248ba538b515e6f783256e41c2272666f017ea1064736f6c63430008000033",
  "linkReferences": {},
  "deployedLinkReferences": {}
}